:08000000803102288731FD2F39
:100D1400F0002000111E8B2E700823009A0008009A
:100D2400553023009600AA30960095140000000068
:100D3400080071082300920070089100151395179C
:100D44001512151400000000230095131408F10077
:100D54001308F000080023008E1321000E138E17D1
:100D640022009D019C01083023009F0090309D00CB
:100D740024309E0022309B009C010800F101F20106
:100D84002000911ACF2E0130F1070030F23D710896
:100D94007204031DC22E0030080023009D1CD42EB3
:100DA4001D121D1670088600870119088100013084
:100DB40008002000E0016008C03EF0003F30031846
:100DC4004030F10086319B26863120006035203E7C
:100DD400860087017008C03F7108C13F0130E007F9
:100DE40020306002031CDD2E00302005A0003F30BF
:100DF4002105A100C030F0003F30F1002030F200A6
:100E04008731A72786310100062F2000911E080094
:100E140023009D1C102F1D121D1608001908FA002E
:100E240055307A06031D08007D30F0008631C02657
:100E34008731003A031908007C30F0008631C0265F
:100E44008731003A0319080003307D02031C352F53
:100E54007B30F0008631C0268731003A0319080040
:100E64000130FD02262F1A307C06031D4B2FAA30B9
:100E740086318A268731023086318A268731EE30E0
:100E840086318A26873123009E1C452F8631DB2636
:100E94008731AA3086318A268731023086318A2604
:100EA4008731FF3086318A2608007A302100990084
:100EB4009001220090018631AD2687312000E201A5
:100EC400E3018731072787318530890B672F0000BD
:100ED40001302000E2070030E33D13306302883024
:100EE40003196202031C632F220010080139200039
:100EF400E1000130E1062200100820006106FE39FD
:100F0400610622009000100C01392000E10001303C
:100F1400E106E10D2200100820006106FD3961069A
:100F240022009000100C2000E100610C0139E10066
:100F34000130E106E10DE10D2200100820006106F8
:100F4400FB39610622009000602F7108F8007008D8
:100F5400F7000B0D0B0D0139F6008B1371082300FC
:100F64009200700891009517151315159511151613
:100F7400863192268731230015129516F9017808D7
:100F840023009200770891007908F3000130F335CB
:100F9400890BC92F7208730786008701403FF4004C
:100FA400413FF50075083F3994007908F30001309A
:100FB400F335890BDA2F720873078600870101085D
:100FC40093001F30790603199512863192268731D2
:100FD4000130F7070030F83D0130F907203079027D
:100FE400031CC12F230015119513760C031C8B13BE
:0C0FF40003188B17080020008731572FCE
:020000040001F9
:04000E00EC3FFF3E86
:00000001FF
