:0800000080310228BF31B62F48
:10704400240095120800B83193200800163021005E
:107054009700080023001E0C013908000234403454
:10706400013400342000110E890C01390800710824
:107074002300E1007008E000080071082200EE001F
:107084007008ED00080071082200EC007008EB00A5
:107094000800220010109010BF31E02F08002000DB
:1070A4000D1C562801300800003008007A302100F9
:1070B40099009A019801220096010800F00020002E
:1070C400111E6128700823009A000800553023001F
:1070D4009600AA3096009514000000000800F00005
:1070E4007008240091002000911D7528911124003E
:1070F40011080800F0012000111E852823009E1E9F
:1071040085280130F0007008080040302400940005
:10711400023095000130920021008E112400951256
:1071240008002000911E93282200EA0123009D1CE0
:107134009D281D121D1619080800700886000230CB
:10714400870002308100700A860002308700FF3019
:10715400810001300800B8318720B831B931CE211F
:10716400B831B8315820B831B8312820B831B931E4
:1071740034210800F301F3017308720603190800AF
:107184007308700786000030713D8700810101306B
:10719400F307BE28553023009600AA3096009514B4
:1071A400000000003430F000F230890BD728F00BD7
:1071B400D7280800B8313420B831003A0319EC2834
:1071C400B8319320B831F00055307006031DEC2817
:1071D40001300800003008007108F4000130F202A8
:1071E4000030F33B720A0319730A03190800740888
:1071F400860087010108B8317120B8310130F407E5
:10720400F0287108F4000130F2020030F33B720AF6
:107214000319730A031908007408860087010030F3
:10722400B8317120B93181000130F4070529F40126
:10723400F501701C21297208F4077308F53D01302B
:10724400F235F30D890B22290130F136F00C890B4C
:10725400272970087104031D1B297508F10074089F
:10726400F0000800083023009F0090309D00243077
:107274009E0022309B009C010030F0000030F100A1
:10728400B8313F20B9310030F0000030F100B8319E
:107294004520B9310030F0000030F100B831392018
:1072A4002200EA0108000B08F4008B132300951751
:1072B400151271089200700891007108F3007008AB
:1072C400F2007308F200F30180307206031D6C298A
:1072D40015176D29151315140000000023009513CC
:1072E400151374088B001408F1001308F00008004B
:1072F400B8312C20B931003A031D88291030F3002D
:107304009430890B8329F30B83290032B8317C2014
:10731400B931003A03190800AA30B8316020B931F4
:10732400F4017408720603190800710874078600D2
:10733400023087000108B8316020B9310130F40708
:107344009329200063082100E40020006208210042
:10735400E500E230F5000030F600A030F700003020
:10736400F800BB315623B9312100E601660820003C
:10737400640786000030653D870021006608023EF0
:10738400A03E84008501000881000130E6074030FA
:10739400660203180800B829220090018F01013009
:1073A4008C008D018E01083021009000FE308C008D
:1073B400FF308D0097308E00FF308F0007302300A0
:1073C4008F0007308E0078308D009001BE308C0025
:1073D40024008F0190018D018C018E0121009517ED
:1073E400250090018C018D018E018F0126008C01F6
:1073F4008D018E018F01900127008C018D01FF30DA
:107404008E00FF308F000F30900022009D019C0100
:107414000800C0302000E0003F30E100E2016108D4
:10742400F1006008F000B9315521BA31200062350D
:10743400203E860087017008C03F7108C13F0130BB
:10744400E0070030E13D0130E20720306206031D11
:10745400112A2008031D312A01302200E5002000F2
:107464002208031D382A01302200E600FF302000E4
:107474002605F50000302705F6002408F800F7017A
:1074840000307705F900FF307805FA0075087904B3
:107494002200E70076087A04E80020002808220089
:1074A400E9000800F3002400951A08007308F000AE
:1074B400F101F035F10DF035F10D31307007840034
:1074C4003830713D80388500000894007308F0005E
:1074D400F101F035F10DF035F10D30307007840015
:1074E4003830713D80388500000895009601730896
:1074F400F000F101F035F10DF035F10D3230700787
:1075040084003830713D803885000008920073088B
:10751400F000F101F035F10DF035F10D3330700765
:1075240084003830713D803885000008F200F20D87
:10753400F20DF20D21000E087206F73972068E0064
:1075440024009516080020006D08023E86000330D2
:10755400870080300106031DB72A6D08F10003304F
:10756400F200BD318F25BA31E82A6D08033E86004A
:107574000330870001082100A000A10120006D084C
:10758400023E86000330870001082100A200A30107
:107594002208A300A20100302205A500FF30230524
:1075A400A60020082504A70021082604A80028080E
:1075B4002000A100210027082000A0006D08043E3F
:1075C400A2000330A300BC319324BA312100A900E6
:1075D40029080319FA2A20006E0886000230870061
:1075E400023081006E0A860002308700EE3081008E
:1075F4002100290808002000EA01EB01C030E40062
:107604003F30E500EC016508F1006408F000B93191
:107614005521BA3171082000EB007008EA006C08AB
:10762400043E203E860087016B0881006C08053EFD
:10763400203E860087016A0881000130E40700309B
:10764400E53D0230EC0740306C06031D052B3F304E
:10765400A200C030A30022006508031D372BFF30B1
:107664002000E6000030E7003A2B2000E601E701A5
:107674006608A50022006608031D462BFF30200083
:10768400E8000030E900492B2000E801E90168081E
:10769400A700220069082000AD002030F10000306E
:1076A400F200BD318F2508002000E0010030BA311E
:1076B4005422BB3103302000A000750886007608F0
:1076C400870042310108A10075088600760887000A
:1076D40043310108A20022000C102030F1000330D5
:1076E400F2000030F300B831EE20BB312030F0005E
:1076F4000030F1004030F200B831BC20BB31203002
:10770400F1004030F2000030F300B9310321BB3105
:10771400B8312220BB3122000C1477088600780887
:10772400870042308100770886007808870041315D
:10773400123081002000E10161087707F900003070
:10774400783DFA00790886007A088700423161089A
:10775400203E84008501000881000130E1074030AB
:107764006106031D9E2B013008002000E301003058
:10777400BA315422BB3106302000A00022000C1084
:107784002030F1000130F2000030F300B831EE2077
:10779400BB3122000C143430F700F230890BD02BAB
:1077A400F70BD02B02302000A0007508023E8600A3
:1077B400033087000108A1007508033E86000330EA
:1077C40087000108A2000330E4006408203E86001C
:1077D400870164087507F700770A84000330850081
:1077E400000881000130E40743306406031DE72BE1
:1077F40022000C102030F1004330F2000030F3007E
:10780400B831EE20BB3122000C143430F700F230D2
:10781400890B0A2CF70B0A2CB83122207608860033
:107824000230870002308100760A86000230870029
:10783400EE308100013008002000E901EA01C03087
:10784400E7003F30E800EB016808F1006708F0004A
:10785400B9315521BC3171082000EA007008E900F3
:107864006B08043E233E860087016A0881006B088A
:10787400053E233E86008701690881000130E70741
:107884000030E83D0230EB0740306B06031D262C28
:107894003F30A500C030A600AA012008023E8600A1
:1078A400033087000108AC002008033E8600033043
:1078B40087000108AE002330F1000030F200BD3132
:1078C4008F25BC31003A031D692C003008002000CC
:1078D400210886000230870002308100210A8600D8
:1078E40002308700EE3081002108F1002108860073
:1078F400023087000108F200B9317A21BC31B83175
:107904002C20BC31003A0319812C1A302000A2002B
:10791400F830890B8B2CA20B8B2C0000010001305A
:1079240008002000EA01EB0138302102003003197D
:107934002002031CA62C3F302102C0300319200270
:107944000318A62C00300800C03020063F3003196D
:1079540021060319A42C2108A8002008A900200846
:107964002104031DF52CEC016C08A400A5012408D6
:10797400F0002508F100B9315521BC31710820000F
:10798400EB007008EA006C35043E263E8600870151
:107994006B0881006C35053E263E860087016A0827
:1079A40081000130EC0704306C02031CB62C083053
:1079B400EC006C08043E263E860087016C08220712
:1079C40084000030233D8500000881000130EC076D
:1079D40040306C02031CDB2C2630F1000030F20036
:1079E400BD318F250800EC016C08043E263E86005C
:1079F40087016C08220784000030233D85000008BD
:107A040081000130EC0740306C020318EE2CF62C98
:107A14002000A401A001A1017508033E86000330E3
:107A240087000108F700F8017508023E860003305C
:107A340087000108F900FA017908FA00F901003019
:107A44007905FC00FF307A05FD0077087C04A0006E
:107A540078087D04A1007508023E86000330870083
:107A640080300106031D552D2108F1002008F00087
:107A7400B9315521BD3171082000A3007008A2005E
:107A84007608023E860002308700230881007608CB
:107A9400033E860002308700220881000130A407DB
:107AA4000130A407802DA4012108F1002008F00072
:107AB400B9315521BD3171082000A3007008A2001E
:107AC40024087607F7007708023E86000230870014
:107AD4002308810024087607F7007708033E860010
:107AE40002308700220881000130A0070030A13D48
:107AF4000230A40740302406031D562D7608860064
:107B0400023087002408023E8100760A8600023093
:107B1400870002308100013008000B08FA008B1343
:107B2400710886007208870043310108F300F401EC
:107B3400710886007208870042310108F500F601D9
:107B44007508F600F50100307505F800FF3076057C
:107B5400F90073087804FB0074087904FC007C08BD
:107B6400230092007B089100951715159511710853
:107B7400860072088700423180300106031DD22D31
:107B840015177108860072088700443101089400B3
:107B94007108860072088700453101089300092E98
:107BA40015131516B831CC20BD31230015129516C6
:107BB400FD017C08230092007B0891007D08710779
:107BC400F3000030723DF4007308860074088700E7
:107BD4004431010894007D087107F3000030723DC0
:107BE400F400730886007408870045310108930087
:107BF400B8316820BD310130FB070030FC3D023054
:107C0400FD0740307D06031DDB2D23009512B8319E
:107C1400CC20BD3123001511951315137A088B0060
:107C2400951D162E00300800013008002200680857
:107C3400E3006708E20063082000E3002200620812
:107C44002000E2002030E4000230E500B931A32135
:107C5400BE314D3024002006031D3C2E5030210639
:107C6400031D3C2E46302206031D3C2E55302306B0
:107C74000319402E01302200E900080028082100E1
:107C8400E700E801240027082100E900EA01690867
:107C9400EA00E901670869042000ED002100680892
:107CA4006A042000EE002200E001E10120006E08D9
:107CB40022006102031D622E20006D082200600272
:107CC4000318CA2E6108F1006008F0004230F20087
:107CD4000030F300B9311921BE317008403E210053
:107CE400EE000030713DEF006E08220062072000B4
:107CF400E20021006F082200633D2000E300A03071
:107D0400E4000130E500B931A321BE31230021088C
:107D14002100E700E801230020082100E900EA012E
:107D24006908EA00E90167086904EC0068086A0464
:107D3400ED006E08220062072100E7006F082200B0
:107D4400633D2100E8006708023E2000E2000030A5
:107D54002100683D2000E3002030E4000130E5000C
:107D6400B931A321BE3121006D082000A1002100FA
:107D74006C082000A0002030A2000130A300BC3118
:107D84009324BE3101302200E0070030E13D582E3B
:107D9400E9010800B831AD20BE312000EF012030E8
:107DA400F0000330F1004430F200B831BC20BE31A1
:107DB400A030F0000230F1004230F200B831BC20B3
:107DC400BE31BA310B22BE31220066080319F92EE6
:107DD400BE311826BE312200E601BA31FD22BE3181
:107DE40022006908031DF92EB8314B20BE31B83189
:107DF4005120BE31003A031D062F22006508031DE1
:107E0400062FB8314B20BE312200E501BA31FD22E4
:107E1400BE31220010146400B831DC20BE31003AB7
:107E240003190D2F220090146400B8312520BE31AF
:107E34002600A000453020020318232F2008031D2C
:107E4400252FA101752F01302200E400260020080F
:107E5400220064060319752F6408203E860003304F
:107E64008700B8312520BE31810001302200E407AB
:107E7400282F2030F500A030F600BD310A25BE3190
:107E8400722F20302000ED00A030EE00BA31A52280
:107E9400BE31722F20302000A000A030A100BC31E0
:107EA4001E24BE31722F2030F5000330F600A030BE
:107EB400F7000230F800BB315623BE31722F203058
:107EC400F500A030F600BB31B723BE31722FB831B4
:107ED4004B20BE318A2FA030F000B8319F20BE3134
:107EE4002000EF008A2F26002108023A03193B2FB5
:107EF400063A0319432F0B3A0319692F1D3A031944
:107F0400552F063A0319612F023A03194C2F6D2F8E
:107F140020006F03031D922F25002008031D972FB7
:107F2400A030F000B8319F20BE31A030F100250010
:107F34002008F200B9317A21BE312000EF0120304F
:107F4400F0000330F1004430F200B831BC20BE31FF
:107F5400A030F0000230F1004230F200B831BC2011
:107F6400BE31220090100D2F2200E501E601E70149
:0C7F7400E801E901EA012000BE31CC2E3A
:020000040001F9
:04000E00E43FFF3F8D
:00000001FF
