:020000040000FA
:08000000803102288731F52F41
:100EB00016302100970008007D08FB007C08FA002E
:100EC00008007D08F9007C08F80008007D08200073
:100ED000A1007C08A00008008731862787316F2F8A
:100EE000803102287A30210099009A01980122006D
:100EF0009601080040302400940002309500013033
:100F0000920021008E1124009512080087317A2763
:100F100087318731B8278731873172278731873109
:100F200058278731873196278731080008302300FA
:100F30009F0090309D0024309E00A0309B00013027
:100F40009C000030FC000030FD0087315C278731B9
:100F50000030FC000030FD00873161278731003010
:100F6000FC000030FD00873166278731F70108005B
:100F7000220090018F018C018D018E01083021002B
:100F80009000FE308C00FF308D00D7308E00FF3097
:100F90008F00073023008F0007308E0078308D00DF
:100FA00007309000BF308C0024008F0190018D012C
:100FB0008C018E0121009517250090018C018D0177
:100FC0008E018F0126008C018D018E018F01900111
:100FD00027008C018D01FF308E00FF308F000F3015
:100FE000900022009D019C010800F001F101F20136
:100FF000F301F401F501F601F701200087316C2FB0
:081000000234403401340034D5
:020000040001F9
:04000E00E43FFF3F8D
:00000001FF
