:0800000080310228BF31D32F2B
:10709400240095120800B831BB20080016302100E6
:1070A4009700080023001E0C013908000234403404
:1070B400013400342000110E890C013908007108D4
:1070C4002200EF007008EE00080071082100EE00B5
:1070D4007008ED00080071082100EC007008EB0056
:1070E4000800220010109010BF31FC2F080020006F
:1070F4000D1C7E2801300800003008007A30210081
:1071040099009A019801220096010800F0002000DD
:10711400111E8928700823009A00080055302300A6
:107124009600AA3096009514000000000800F000B4
:107134007008240091002000911D9D2891112400C5
:1071440011080800F0012000111EAD2823009E1E26
:10715400AD280130F000700808004030240094008D
:10716400023095000130920021008E112400951206
:1071740008002000911EBB282100EF0123009D1C64
:10718400C5281D121D161908080070088600023053
:10719400870002308100700A860002308700FF30C9
:1071A400810001300800B831AF20B831B931DB219A
:1071B400B831B8318020B831B8315020B831B93144
:1071C40041210800F301F301730872060319080052
:1071D4007308700786000030713D8700810101301B
:1071E400F307E628553023009600AA30960095143C
:1071F400000000003430F000F230890BFF28F00B5F
:10720400FF280800B8315C20B931003A0319142969
:10721400B831BB20B931F00055307006031D142974
:1072240001300800003008007108F4000130F20257
:107234000030F33B720A0319730A03190800740837
:10724400860087010108B8319920B9310130F4076B
:1072540018297108F4000130F2020030F33B720A7D
:107264000319730A031908007408860087010030A3
:10727400B8319920B93181000130F4072D29083043
:1072840023009F0090309D0024309E0022309B00FC
:107294009C010030F0000030F100B8316720B931B2
:1072A4000030F0000030F100B8316D20B931003009
:1072B400F0000030F100B83161202100EF01080036
:1072C4000B08F4008B132300951715127108920014
:1072D400700891007108F3007008F2007308F2005E
:1072E400F30180307206031D792915177A291513C5
:1072F40015140000000023009513151374088B0067
:107304001408F1001308F0000800B8315420B93112
:10731400003A031D95291030F3009430890B90290D
:10732400F30B90290032B831A420B931003A031983
:107334000800AA30B8318820B931F4017408720603
:1073440003190800710874078600023087000108D9
:10735400B8318820B9310130F407A029200063082E
:107364002100E400200062082100E500E230F5007D
:107374000030F600A030F7000030F800BB31722373
:10738400B9312100E6016608200064078600003058
:10739400653D870021006608023EA03E8400850109
:1073A400000881000130E607403066020318080037
:1073B400C529220090018F0101308C008D018E01BE
:1073C400083021009000FE308C00FF308D00973093
:1073D4008E00FF308F00073023008F0007308E00AF
:1073E40078308D009001BE308C0024008F01900114
:1073F4008D018C018E0121009517250090018C01CF
:107404008D018E018F0126008C018D018E018F016B
:10741400900127008C018D01FF308E00FF308F001A
:107424000F30900022009D019C01080020002F08CD
:10743400023E86000330870080300106031D2A2A9D
:107444002F08F1000330F200BC31BF24BA31552AB1
:107454002F08033E8600033087000108B100B20103
:107464002F08023E8600033087000108B300B401F0
:107474003308B400B30100303305B600FF303405DF
:10748400B70031083604B80032083704B9003908A7
:10749400AA003808A9002F08043EAB000330AC0052
:1074A400BD31D325BA312000BA003A080319662A3F
:1074B400300886000230870002308100300A8600DE
:1074C40002308700EE3081003A080800F3002400FF
:1074D400951A08007308F000F101F035F10DF0354C
:1074E400F10D5930700784003830713D80388500C3
:1074F400000894007308F000F101F035F10DF03547
:10750400F10D5830700784003830713D80388500A3
:107514000008950096017308F000F101F035F10DB3
:10752400F035F10D5A30700784003830713D8038E1
:107534008500000892007308F000F101F035F10DA8
:10754400F035F10D5B30700784003830713D8038C0
:1075540085000008F200F20DF20DF20D21000E0874
:107564007206F73972068E00240095160800200072
:10757400EA01EB01E030E4003F30E500EC0165088E
:10758400F1006408F000B9316221BA3171082000B9
:10759400EB007008EA006C08043E203E8600870178
:1075A4006B0881006C08053E203E860087016A084E
:1075B40081000130E4070030E53D0230EC07403043
:1075C4006C06031DC12A3F30A200E030A300220054
:1075D4006708031DF32AFF302000E6000030E700AF
:1075E400F62A2000E601E7016608A50022006808E3
:1075F400031D022BFF302000E8000030E900052BBA
:107604002000E801E9016808A70022006D082000B5
:10761400B1002030F1000030F200BC31BF2408007A
:10762400E0302000E0003F30E100E2016108F100B9
:107634006008F000B9316221BB3120006235203E80
:10764400860087017008C03F7108C13F0130E00720
:107654000030E13D0130E20720306206031D182BA3
:107664002008031D382B01302200E70020002208E7
:10767400031D3F2B01302200E800FF3020002605C7
:10768400F50000302705F6002408F800F701003063
:107694007705F900FF307805FA00750879042200AF
:1076A400E90076087A04EA00FF3020002A05F50094
:1076B40000302B05F6002808F800F70100307705A4
:1076C400F900FF307805FA00750879042200EB0010
:1076D40076087A04EC0020002C082200ED00080053
:1076E4002000E0010030BA316822BB3103302000B1
:1076F400A000750886007608870042310108A100C1
:10770400750886007608870043310108A20022002C
:107714000C102030F1000330F2000030F300B931D6
:107724001621BB312030F0000030F1004030F2006F
:10773400B831E420BB312030F1004030F200003099
:10774400F300B9312B21BB31B8314A20BB312200BF
:107754000C14770886007808870042308100770887
:107764008600780887004131123081002000E10151
:1077740061087707F9000030783DFA00790886003F
:107784007A08870042316108203E840085010008A0
:1077940081000130E10740306106031DBA2B01303E
:1077A40008002000E3010030BA316822BB31063002
:1077B4002000A00022000C102030F1000130F20063
:1077C4000030F300B9311621BB3122000C143430DF
:1077D400F700F230890BEC2BF70BEC2B0230200076
:1077E400A0007508023E8600033087000108A1004E
:1077F4007508033E8600033087000108A2000330A9
:10780400E4006408203E8600870164087507F700D9
:10781400770A840003308500000881000130E40702
:1078240043306406031D032C22000C102030F100A9
:107834004330F2000030F300B9311621BB3122008D
:107844000C143430F700F230890B262CF70B262C5D
:10785400B8314A2076088600023087000230810061
:10786400760A860002308700EE308100013008007D
:107874002000A401A001A1017508033E8600033085
:1078840087000108F700F8017508023E86000330FE
:1078940087000108F900FA017908FA00F9010030BB
:1078A4007905FC00FF307A05FD0077087C04A00010
:1078B40078087D04A1007508023E86000330870025
:1078C40080300106031D852C2108F1002008F000FA
:1078D400B9316221BC3171082000A3007008A200F4
:1078E4007608023E8600023087002308810076086D
:1078F400033E860002308700220881000130A4077D
:107904000130A407B02CA4012108F1002008F000E4
:10791400B9316221BC3171082000A3007008A200B3
:1079240024087607F7007708023E860002308700B5
:107934002308810024087607F7007708033E8600B1
:1079440002308700220881000130A0070030A13DE9
:107954000230A40740302406031D862C76088600D6
:10796400023087002408023E8100760A8600023035
:10797400870002308100013008000B08FA008B13E5
:10798400710886007208870043310108F300F4018E
:10799400710886007208870042310108F500F6017B
:1079A4007508F600F50100307505F800FF3076051E
:1079B400F90073087804FB0074087904FC007C085F
:1079C400230092007B0891009517151595117108F5
:1079D400860072088700423180300106031D022DA3
:1079E4001517710886007208870044310108940055
:1079F4007108860072088700453101089300392D0B
:107A040015131516B831F420BC3123001512951640
:107A1400FD017C08230092007B0891007D0871071A
:107A2400F3000030723DF400730886007408870088
:107A34004431010894007D087107F3000030723D61
:107A4400F400730886007408870045310108930028
:107A5400B8319020BC310130FB070030FC3D0230CE
:107A6400FD0740307D06031D0B2D23009512B83110
:107A7400F420BC3123001511951315137A088B00DB
:107A8400951D462D00300800013008002100E70153
:107A9400E801E030E4003F30E5001C30E600E90195
:107AA4006508F1006408F000B9316221BD31710844
:107AB4002100E8007008E7006908043EA03E860043
:107AC4008701680881006908053EA03E8600870199
:107AD400670881000130E4070030E53D0230E90722
:107AE40040306906031D522D3F30A200E030A30050
:107AF400E90166082000A2000130A235890B7F2D20
:107B0400A0302207A3002100693520002307A40028
:107B14002408043E86008701210069082000A5008E
:107B2400A601A535A60D2508200784002608213DB9
:107B3400850000088100210066082000A2000130B1
:107B4400A235890BA22DA0302207A300210069359C
:107B540020002307A4002408053E86008701210095
:107B640069082000A500A601A535A60D2508200753
:107B7400A7002608213DA8002708840028088500BE
:107B840001310008810001302100E9070430690255
:107B9400031C7B2DA030F1000030F200BC31BF2467
:107BA40008002200E401E501383020002A020030F8
:107BB40003192902031CE72D3F302A02E030031980
:107BC40029020318E72D003008002A082200A20029
:107BD400200029082200A300200029082A04031DEC
:107BE400452E2200E60166082000AD00AE012D08F6
:107BF400F0002E08F100B9316221BD317108220074
:107C0400E5007008E4006635043E203E860001303D
:107C14008700650881006635053E203E86000130F8
:107C24008700640881000130E60704306602031C03
:107C3400F52D0830E6006608043E203E860001303B
:107C44008700660820002B07840000302C3D850047
:107C54000008810001302200E60740306602031C60
:107C64001D2E2030F1000130F200BC31BF24BD31A3
:107C7400003A0319E52D20002C08A1002B08A000D0
:107C8400BD31482508002200E6016608043E203E76
:107C9400860001308700660820002B07840000302E
:107CA4002C3D85000008810001302200E6074030A9
:107CB4006602031C472E2030F1000130F200BC3173
:107CC400BF24080022006A082300E100220069089A
:107CD4002300E00061082000E30023006008200086
:107CE400E2002030E4000230E500B931B021BE31B9
:107CF4004D3024002006031D8B2E50302106031D19
:107D04008B2E46302206031D8B2E55302306031975
:107D14008F2E01302200ED00080026082000E60026
:107D2400E701240025082000E800E9016808E900CB
:107D3400E80166086804EB0067086904EC002400A5
:107D440028082000E600E701240027082000E800B6
:107D5400E9016808E900E80166086804ED006708BD
:107D64006904EE002300E201E30120006E08230011
:107D74006302031DC12E20006D0823006202031854
:107D8400F62E620860072000E60023006308613DC8
:107D94002000E7006608403EE2000030673DE30053
:107DA400A030E4000130E500B931B021BE31230038
:107DB40063082000E700230062082000E600E7369D
:107DC400E60C6B086607A9006C08673DAA00A030A2
:107DD400AB000130AC00BD31D325BE3140302300AF
:107DE400E2070030E33DB72E2200ED010800B83170
:107DF400D520BE312000EF012030F0000330F10027
:107E04004430F200B831E420BE31A030F00002303A
:107E1400F1004230F200B831E420BE31BB3112230C
:107E2400BE31220068080319222FBE316426BE31F8
:107E34002200E801BA31B922BE31B8317320BE3113
:107E4400B8317920BE31003A031D2F2F2200670874
:107E5400031D2F2FB8317320BE312200E701BA3140
:107E6400B922BE31220010146400B9310421BE319C
:107E7400003A0319362F220090146400B8314D20C3
:107E8400BE312600A0004530200203184C2F2008E4
:107E9400031D4E2FA101952F01302100EA00260079
:107EA400200821006A060319952F6A08203E8600DF
:107EB40003308700B8314D20BE31810001302100EC
:107EC400EA07512F2030F500A030F600BC313A24E7
:107ED400BE31922F20302000AF00A030B000BA3164
:107EE4001822BE31922F2030F5000330F600A03066
:107EF400F7000230F800BB317223BE31922F2030DC
:107F0400F500A030F600BB31D323BE31922FB83137
:107F14007320BE31A72FA030F000B831C720BE3186
:107F24002000EF00A72F26002108023A0319642F2E
:107F3400063A03196C2F0B3A0319892F1D3A0319BA
:107F4400752F063A0319812F8D2F20006F03031D0F
:107F5400AF2F25002008031DB42FA030F000B83146
:107F6400C720BE31A030F10025002008F200B9314D
:107F74008721BE312000EF012030F0000330F100F2
:107F84004430F200B831E420BE31A030F0000230B9
:107F9400F1004230F200B831E420BE3122009010EA
:107FA400362F2100EF012200E701E801E901EA018F
:0C7FB400EB01EC01ED012000BE31F92EC4
:020000040001F9
:04000E00E43FFF3F8D
:00000001FF
