:020000040000FA
:08000000803102288731FB2F3B
:1008A200223021009700080084319224843108000C
:1008B20023001E0C013908002000110E890C013999
:1008C200080071082100E5007008E40008007108C2
:1008D2002000EE007008ED00080071082100E7001A
:1008E2007008E6000800FA30210099009A01980188
:1008F200220096010800F0002000111E812C822C9B
:100902007D2C700823009A000800403024009400D7
:10091200023095000130920021008E1124009512C0
:1009220008002000911E962C972C922CEF01230098
:100932009D1C9C2C9D2C9F2C1D121D161908080015
:10094200F0012000111EA62CA72CAE2C23009E1E07
:10095200AB2CAC2CAE2CF001F00A700808008431EC
:10096200862484318531D2258431843174248431C2
:100972008431512484318531542584310800F100B9
:100982000230F00071088600870170088100FF3094
:10099200F000710A860087017008810001300800AA
:1009A200F100F201F20172087107F000700886008E
:1009B200870181010130F0007008F20742307202B3
:1009C200031CE42CE52CD42C0800F40074088531B7
:1009D200322584310230F3007208860087017308E1
:1009E20081000330F300720A8600870173088100D8
:1009F2000130080084315D248431003A0319022D4C
:100A0200032D112D843192248431F0007008F100FD
:100A120055307106031D0E2D0F2D112D0130122D93
:100A2200003008002000A00020088631A22685316F
:100A3200FD007D082000A10021080319212D222D8F
:100A4200302D0230FD007C08860087017D08810080
:100A52000430FD007C0A860087017D0881002108A0
:100A62000800F10000308B1B0130F0008B1371087D
:100A720086008701423F23009200710886008701A9
:100A8200433F91009430950055309600AA3096006D
:100A920095140000000023001511700C031C8B1329
:100AA20003188B170800083023009F0090309D0028
:100AB20024309E00A0309B0001309C000030F000EA
:100AC2000030F1008431682485310030F0000030BC
:100AD200F10084316E2485310030F0000030F100E5
:100AE2008431622485312000EF01080000308B1B25
:100AF2000130F4007108F3007008F2007308F2008C
:100B0200F30180307206031D872D882D8C2D230062
:100B120092011517902D7108230092001513700889
:100B2200910095178B13151400000000740C031C20
:100B32008B1303188B1723001408F1001308F0001D
:100B42000800F300843159248531003A031DAA2D8F
:100B5200AB2DAF2DF0300032890BAC2D8431A124A6
:100B62008531003A0319B62DB72DD12DAA30843123
:100B72007C248531F401CB2D74087307F2007208CE
:100B820086008701010884317C2485310130F2001E
:100B92007208F40771087402031CD02DD12DBD2DEB
:100BA2000800220090018F018C018D018E01083016
:100BB20021009000FF308C00FF308D0097308E00B6
:100BC200FF308F00073023008F0007308E007F3008
:100BD2008D0007309000BF308C0024008F019001FF
:100BE2008D018C018E0121009517250090018C0149
:100BF2008D018E018F0126008C018D018E018F01E6
:100C0200900127008C018D01FF308E00FF308F0094
:100C12000F30900022009D019C0108002000A200DC
:100C2200A501A001A1012208033E86008701010857
:100C3200F600F7012208023E860087010108F8004B
:100C4200F9017808F900F80100307805FB00FF305F
:100C52007905FC0076087B04A00077087C04A100DB
:100C62002208023E8600870180300106031D3A2ECB
:100C72003B2E602E2108F1002008F00085317725F7
:100C8200863171082000A4007008A3002408F60031
:100C92007508023E86008701760881002308F60067
:100CA2007508033E86008701760881000130F60050
:100CB2007608A5070130F6007608A507912EA50152
:100CC2002108F1002008F00085317725863171086E
:100CD2002000A4007008A3002408F6002508750768
:100CE200F7007708023E8600870176088100230814
:100CF200F60025087507F7007708033E860087018E
:100D0200760881000130A0070030A13D0230F600D4
:100D12007608A50740302502031C902E912E612EE5
:100D22002508023EF60075088600870176088100D4
:100D32000230F600750A86008701760881000130CC
:100D42000800FB0000308B1B0130F7008B137B087F
:100D5200033E860087010108F000F1017B08023E94
:100D6200860087010108F200F3017208F300F20124
:100D720000307205F500FF307305F6007008750447
:100D8200F80071087604F9007908230092007808C7
:100D920091009517951115157B08023E8600870173
:100DA20080300106031DD62ED72EE32E15177B08A1
:100DB20086008701443F94007B0886008701453FF7
:100DC2009300282F1513151655309600AA30960059
:100DD2009514000000003430F000F230890BEF2E41
:100DE200F00BEF2E2300151EF72EF82EFA2E0030F0
:100DF200442F9516FA017908230092007808910091
:100E02007A087B07F000700886008701443F94004F
:100E12007A087B07F000700886008701453F93003F
:100E220055309600AA30960095140000000001305B
:100E3200F8070030F93D0230F0007008FA07403040
:100E42007A02031C252F262FFC2E230095125530E3
:100E52009600AA3096009514000000003430F0008D
:100E6200F230890B322FF00B322F2300151315119C
:100E7200770C031C8B1303188B17951D412F422FE0
:100E8200432FF82E013008008431B0248731A0307E
:100E92008431D124873128308431D1248731210013
:100EA200900122009001101464008431FB248731E8
:100EB200003A03195D2F5E2F552F22009014640013
:100EC2008431552487312000A60026082100A00085
:100ED2004530200203186E2F6F2F742F2008031D38
:100EE200732F742F762FA101C22F2000EC01EC0A80
:100EF200892F8431552487312000A6006C08A03E3A
:100F020086008701260881000130A6002608EC072A
:100F12002100200820006C02031C902F912F7A2FB1
:100F2200C22F2830A6002608F500A03086310F26F1
:100F320087312000A7002708EB00D72F2830A60012
:100F42002608F200A0308431E62487312000A70071
:100F52002708EB00D72F2830A6002608FC00A03077
:100F62008531132587312000A7002708EB00D72FF2
:100F720028308431C02487312000A6002608EB00E7
:100F8200D72F210021082000A600A7012708003A38
:100F92000319CC2FB92F2608023A0319922F013ACE
:100FA20003199F2F073A0319AC2FB92F6B03031DA7
:100FB200DB2FDC2FE12F2808031DE02FE12FE52F87
:100FC20028308431C024873120002808A600260852
:100FD200F10028308531A2258731A0308431D12417
:100FE200873128308431D124873122009010552F47
:100FF200803102282000EF0120008731452F023482
:061002004034013400340B
:020000040001F9
:04000E008439FF3FF3
:00000001FF
