:020000040000FA
:08000000803102288731FC2F3A
:100BD400223021009700080086314B268531080019
:100BE40023001E0C013908007108FC007008FB008A
:100BF40008002000110E890C01390800710820003A
:100C0400E3007008E200080071082000E5007008A5
:100C1400E40008007830210099009A01980122002C
:100C24009601080040302400940002309500013001
:100C3400920021008E11240095120800F000232E4A
:100C440064002000111E272E282E222E7008230057
:100C54009A000800F0012000111E312E322E392E88
:100C640023009E1E362E372E392EF001F00A70080E
:100C74000800863114268631873110278631863163
:100C84000C2686318531EA25863186319A268631CD
:100C940008004D2E64002000911E512E522E4C2E21
:100CA400FD0123009D1C572E582E5A2E1D121D1671
:100CB40019080800F1000230F0007108860087016D
:100CC40070088100FF30F000710A86008701700807
:100CD400810001300800F100F201F201720871078D
:100CE400F00070088600870181010130F00070086F
:100CF400F20742307202031C802E812E702E0800EF
:100D04008531FB258631003A0319892E8A2E982EC7
:100D140086314B268631F0007008F100553071069B
:100D2400031D952E962E982E0130992E0030080022
:100D3400083023009F0090309D0024309E00A03096
:100D44009B0001309C000030F0000030F100853140
:100D5400F62586310030F0000030F1008631062699
:100D640086310030F0000030F100863100268631F3
:100D7400FD010800F400F501F501D42E750874078F
:100D8400F1007108860087010108F20075087007F8
:100D9400F300730886008701720881000130F100B6
:100DA4007108F50774088600870101087502031CA1
:100DB400DC2EDD2EC02E700A860087018101810A97
:100DC40001300800F3008531F2258631003A031D15
:100DD400EC2EED2EF12EF0300032890BEE2E863102
:100DE4002C268631003A0319F82EF92E0F2FF40120
:100DF400092F74087307F20072088600870101083E
:100E04008631202686310130F2007208F407710819
:100E14007402031C0E2F0F2FFB2E080022009001DA
:100E24008F018C018D018E010F3021009000FF3065
:100E34008C00FF308D0097308E00FF308F0007301C
:100E440023008F0007308E007F308D000730900024
:100E5400BF308C0024008F0190018D018C018E0124
:100E640021009517250090018C018D018E018F01C1
:100E740026008C018D018E018F01900127008C01C9
:100E84008D01FF308E00FF308F000F309000220064
:100E94009D019C01080086313B2687312030863134
:100EA4006D268731A03086316D2687314630F600B5
:100EB40076082100A0000A30F6007608A10002306E
:100EC400F6007608F100A0308631E4268731203020
:100ED40086316D268731A03086316D268731863183
:100EE40082268731003A0319782F792F712F6400F5
:100EF4008531EE258731F60076082000A0004330C6
:100F040020020318862F872F8C2F2008031D8B2F78
:100F14008C2F8E2FA101BB2FFA01FA0A9F2F853146
:100F2400EE258731F6007A08203E86008701760890
:100F340081000130F6007608FA07200020087A02C2
:100F4400031CA52FA62F912FBB2FA030F6007608E7
:100F5400F00020308631BC268731F7007708F9008D
:100F6400C82FA03086315C268731F6007608F90058
:100F7400C82F2108F600F7017708003A0319C32F98
:100F8400B32F7608013A0319A72FB32F7903031D52
:100F9400CC2FCD2FF12F210020080319D22FD32FCE
:100FA400F12FAA30F6007608F800F101F10A783042
:100FB4008631E426873121002008F6007608F10006
:100FC400A0308631E42687310A30F6007608210005
:100FD400A000F101F10AA0308631E42687312030E7
:100FE40086316D268731A03086316D268731712F89
:100FF40080310228FD01200087314D2F0234403416
:04100400013400347F
:020000040001F9
:04000E00F43FFF3E7E
:00000001FF
