:020000040000FA
:08000000803102288731F32F43
:1001980024009512080023001E0C013908002230A3
:1001A80021009700080022001010D928080081318A
:1001B8004221803108002000110E890C0139080005
:1001C80071082100E5007008E400080071082100AA
:1001D800E9007008E800080071082100E7007008CD
:1001E800E6000800FA30210099009A0198012200DF
:1001F8009601080020000D1C022903290529013059
:10020800062900300800553023009600AA309600D1
:100218009514000000000800F0002000111E1529A8
:1002280016291129700823009A000800403024007C
:100238009400023095000130920021008E112400B4
:1002480095120800F0007008240091002000911D0C
:100258002E292F292A299111240011080800F001BC
:100268002000111E38293929402923009E1E3D29C6
:100278003E294029F001F00A700808002000911E6C
:10028800462947294229EF0123009D1C4C294D2965
:100298004F291D121D161908080081311A218131B4
:1002A8008231852281318031F62081318031D3201D
:1002B80081318131E32181310800F1000230F00001
:1002C800710886000130870070088100FF30F00057
:1002D800710A86000130870070088100013008002B
:1002E800F501F50185297508F300F4017308700715
:1002F80086007408713D870081010130F30073089E
:10030800F50775087206031D8A298B2977290800C5
:100318008031DF208131003A031993299429A229D9
:10032800813142218131F0007008F10055307106A9
:10033800031D9F29A029A2290130A3290030080004
:10034800F5007508F3007308F400B52974088600F1
:10035800870101088131262181310130F3007308BA
:10036800F4070130F1020030F23B710A031DC02985
:10037800720A031DC029C129AA290800F4007408BB
:10038800F3007308F500D629003081312621813128
:10039800F300750886008701730881000130F300B7
:1003A8007308F5070130F1020030F23B710A031DB2
:1003B800E129720A031DE129E229C8290800083049
:1003C80023009F0090309D0024309E00A0309B00A9
:1003D80001309C000030F0000030F1008031EA204C
:1003E80081310030F0000030F1008031F02081319F
:1003F8000030F0000030F1008031E420813120002D
:10040800EF0108002000A1002108F0000230F100EF
:100418008531692582312000A0002008A200220829
:100428000319172A182A282A0230A0007D088600F6
:1004380001308700200881000430A0007D0A860072
:1004480001308700200881002208080000308B1B3B
:100458000130F4008B13710823009200700891009A
:100468007108F3007008F2007308F200F30180309D
:100478007206031D402A412A432A1517442A1513D8
:100488009517151400000000740C031C8B13031837
:100498008B1723001408F1001308F00008008031BE
:1004A800CF208231003A031D5A2A5B2A5F2AF03096
:1004B8000032890B5C2A813133218231003A0319D9
:1004C800662A672A842AAA30813110218231F601EE
:1004D8007E2A7608F400F50174087107860075080D
:1004E800723D870001088131102182310130F4000A
:1004F8007408F60776087306031D832A842A6D2A72
:100508000800220090018F0101308C008D018E01BE
:10051800083021009000FE308C00FF308D009730AD
:100528008E00FF308F00073023008F0007308E00C9
:1005380078308D009001BE308C0024008F0190012E
:100548008D018C018E0121009517250090018C01E9
:100558008D018E018F0126008C018D018E018F0186
:10056800900127008C018D01FF308E00FF308F0035
:100578000F30900022009D019C010800F300240028
:10058800951AC72AC82A102B7308F000F101F03514
:10059800F10DF035F10D0130700784008830713DA0
:1005A8008500000894007308F000F101F035F10DA2
:1005B800F035F10D0030700784008830713D8500FA
:1005C8000008950096017308F000F101F035F10D6F
:1005D800F035F10D0230700784008830713D8500D8
:1005E800000892007308F000F101F035F10DF035C4
:1005F800F10D0330700784008830713D85000008D4
:10060800F200F20DF20DF20D21000E087206F73914
:1006180072068E00240095160800200060088231BA
:10062800C22283310330F90079082000A00076083F
:1006380086007708870042310108F9007908A1008F
:10064800760886007708870043310108F9007908A1
:10065800A20022000C100330F1000030F20020301C
:100668008131A42183314030F1000030F200203084
:100678008131C221833122000C148031CC20833196
:100688004230F90078088600013087007908810037
:100698001230F900780A8600013087007908810055
:1006A8002000E1016108203E860087010108F90069
:1006B80061087807FA007A08023E86000130870050
:1006C800790881000130F9007908E10740306106B6
:1006D800031D6F2B702B562B013008002000E601FC
:1006E800E701E030E4003F30E500E8016508F1008B
:1006F8006408F00082312A22833171082000E70063
:100708007008E6006708FD006808043E203E860081
:1007180087017D0881006608FD006808053E203EC7
:10072800860087017D0881000130E4070030E53D3F
:100738000230FD007D08E80740306806031DA52B40
:10074800A62B7A2B3F30FD007D08A200E030FD008B
:100758007D08A30024006403031DB32BB42BB72B1F
:100768002000A501BC2BFF30FD007D082000A5005E
:1007780024006503031DC12BC22BC52B2000A70134
:10078800CA2BFF30FD007D082000A70024006A085E
:10079800FD007D082000B1002030F0000030F1009D
:1007A80085316925833108002000E001E101E0304E
:1007B800E2003F30E300E4016308F1006208F00062
:1007C80082312A22833120006435203E8600870149
:1007D8007008C03F7108C13F0130E2070030E33DB7
:1007E8000130F5007508E40720306406031DFD2B71
:1007F800FE2BE02B2008031D022C032C062C2400C2
:10080800E401E40A20002208031D0B2C0C2C0F2CF9
:100818002400E501E50AFF3020002605F500003038
:100828002705F6002408F800F70100307705F900DD
:10083800FF307805FA00750879042400E600760888
:100848007A04E700FF3020002A05F50000302B0568
:10085800F6002808F800F70100307705F900FF30A6
:100868007805FA00750879042400E80076087A0407
:10087800E90020002C08F50075082400EA000800AB
:100888002000E801E901240069082000E7002400AD
:1008980068082000E600A030F0000030F100443085
:1008A800FB007B08F200813174218431FC01FD01D9
:1008B800C12C20006708FB007B08E4006608FB00E9
:1008C8007B08E5006230F6000030F7002030FB00BE
:1008D8007B08F80083311123843122002208FB00B1
:1008E8007B082100A20022002308FB007B082100CE
:1008F800A30001302000E6070030E73D6708FB0051
:100908007B08E4006608FB007B08E5006230F6001F
:100918000030F7002030FB007B08F80083311123FA
:1009280084312000E801E9016808023E203E860083
:10093800013087000108FB006808043EA03E8600DD
:1009480087017B0881000130E8070030E93D40302D
:1009580068066904031DB12CB22C982CA030F10054
:100968000030F2004430FB007B08F3008231532250
:1009780084310130FC070030FD3D7D082400690604
:10098800031DC82C7C086806031DCB2CCC2C5D2CC1
:1009980008002000A200A501A001A1012208033E31
:1009A8008600023087000108F600F7012208023E9F
:1009B8008600023087000108F800F9017808F9007C
:1009C800F80100307805FB00FF307905FC00760857
:1009D8007B04A00077087C04A1002208023E860060
:1009E8000230870080300106031DFB2CFC2C232DD0
:1009F8002108F1002008F00082312A228431710890
:100A08002000A4007008A3002408F6007508023E20
:100A1800860001308700760881002308F6007508F3
:100A2800033E860001308700760881000130F60019
:100A38007608A5070130F6007608A507562DA5010A
:100A48002108F1002008F00082312A22843171083F
:100A58002000A4007008A3002408F60025087507E4
:100A6800F7007708023E860001308700760881008B
:100A78002308F60025087507F7007708033E860067
:100A880001308700760881000130A0070030A13DC1
:100A98000230F6007608A50740302506031D552DBF
:100AA800562D242D2508023EF600750886000130D3
:100AB8008700760881000230F600750A860001304A
:100AC8008700760881000130080000308B1B013058
:100AD800F9008B13700886007108870043310108FC
:100AE800F200F3017008860071088700423101089E
:100AF800F400F5017408F500F40100307405F700FE
:100B0800FF307505F80072087704FA007308780456
:100B1800FB007B08230092007A0891009517951135
:100B2800151570088600710887004231803001066B
:100B3800031D9F2DA02DB02D151770088600710874
:100B48008700443101089400700886007108870006
:100B5800453101089300FD2D151315168131072124
:100B680085313430F200F230890BB82DF20BB82DF4
:100B78002300151EC02DC12DC32D0030142E95162F
:100B8800FC017B08230092007A0891007C08F2009F
:100B9800F30172087007F4007308713DF5007408DA
:100BA8008600750887004431010894007C08F2002B
:100BB800F30172087007F4007308713DF5007408BA
:100BC80086007508870045310108930081310721A7
:100BD80085310130FA070030FB3D0230F20072081F
:100BE800FC0740307C06031DFA2DFB2DC52D230084
:100BF80095128131072185313430F200F230890BAA
:100C0800032EF20B032E23001511790C031C8B13F2
:100C180003188B17951D112E122E132EC12D01307E
:100C280008002000E50063088231C22286310630C0
:100C3800F70077082000A00022000C100130F10016
:100C48000030F20020308131A421863122000C14BA
:100C58003430F700F230890B2F2EF70B2F2E42304D
:100C6800F70077082000A00065088600023087009A
:100C78000230423FA100650886000230870002303A
:100C8800433FA20022000C100330F1000030F200B4
:100C980020308131A421863122000C143430F70031
:100CA800F230890B552EF70B552E0630F7007708D2
:100CB8002000A00022000C100130F1000030F200EA
:100CC80020308131A421863122000C143430F70001
:100CD800F230890B6D2EF70B6D2E0230F700770876
:100CE8002000A00065088600023087000230423FDD
:100CF800A10065088600023087000230433FA20049
:100D08000330F7007708E40064086507F700770AFE
:100D18008600023087000108F8006408203E86003B
:100D28008701780881000130F7007708E40743302D
:100D38006406031DA02EA12E882E22000C1043301D
:100D4800F1000030F20020308131A42186312200E8
:100D58000C143430F700F230890BB02EF70BB02E9C
:100D68008031CC2086310230F700760886000130C9
:100D78008700770881001430F700760A8600013072
:100D880087007708810001300800813151218631C0
:100D98002000EE012030F0000230F1004430EA007B
:100DA8006A08F200813174218631A030F0000130E8
:100DB800F10042302000EA006A08F2008131742113
:100DC80086318331D8238631240065080319ED2E36
:100DD800EE2EF92E8431442486312400E501833136
:100DE800722386318031D72086318031FE208631CA
:100DF800003A031D002F012F0A2F24006408031D49
:100E0800062F072F0A2F8031D72086312400E401CE
:100E180083317223863122001014640081318C21C1
:100E28008631003A0319192F1A2F112F2200901416
:100E380064008031DB2086312000EA006A08240043
:100E4800A0004530200203182A2F2B2F302F20080E
:100E5800031D2F2F302F322FA1019A2F2000ED01D3
:100E6800ED0A462F8031DB2086312000EA006D082C
:100E7800203E8600023087006A0881000130EA00BF
:100E88006A08ED072400200820006D06031D4D2F79
:100E98004E2F362F9A2FA030EA006A08F50020302E
:100EA8008431CD2486312000EB006B08EE00B82F8A
:100EB800A030EA006A08FD0020308231062286311F
:100EC8002000EB006B08EE00B82F2030F60002304F
:100ED800F700A030EA006A08F80083311123863150
:100EE8002000EB006B08EE00B82FA030EA006A087B
:100EF800F60020308631152686312000EB006B087D
:100F0800EE00B82F8431442486312000EE01EE0A29
:100F1800B82F8031D7208631B82FA0308131612198
:100F280086312000EA006A08EE00B82F2400210864
:100F38002000EA00EB016B08003A0319A42F912F57
:100F48006A08023A03194F2F063A03195C2F0B3A25
:100F580003198D2F1D3A0319692F063A0319792FA2
:100F68008D3A0319862F912F20006E03031DBD2F84
:100F7800BE2FC42F23002008031DC32FC42FC82F42
:100F8800A030813161218631A030F1000130F200BA
:100F9800230020082000EA006A08F3008231532267
:100FA80086312000EE012030F0000230F10044309C
:100FB800EA006A08F200813174218631A030F0001D
:100FC8000130F10042302000EA006A08F200813165
:100FD8007421863122009010112F803102282000C0
:100FE800EF012400E401E501E601E701E801E90178
:100FF800EA0120008631C92E02344034013400341D
:020000040001F9
:04000E00E43FFF3E8E
:00000001FF
