:020000040000FA
:08000000803102288731F32F43
:1003100024009512080022302100970008002200D6
:100320001010912908008131EF218131080023004C
:100330001E0C013908002000110E890C013908003B
:1003400071082100E3007008E20008007108210034
:10035000E7007008E600080071082100E500700859
:10036000E4000800FA30210099009A019801220067
:100370009601080020000D1CBE29BF29C1290130AB
:10038000C22900300800553023009600AA3096009C
:100390009514000000000800F0002000111ED12973
:1003A000D229CD29700823009A000800403024008B
:1003B0009400023095000130920021008E1124003B
:1003C00095120800F0007008240091002000911D93
:1003D000EA29EB29E62991112400110808002000E0
:1003E000911EF329F429EF29EE0123009D1CF92920
:1003F000FA29FC291D121D1619080800F001200019
:10040000111E032A042A0B2A23009E1E082A092AE9
:100410000B2AF001F00A700808008131D6218231E0
:1004200083313A2382318131B221823181318B2172
:1004300082318231BE2282310800F1000230F000A8
:1004400071088600870170088100FF30F000710A92
:10045000860087017008810001300800F401F40172
:100460007408F200F3017208700786007308713D8A
:10047000870081010130F2007208F40742307406EF
:10048000031D432A442A302A080081319B218231EE
:10049000003A03194C2A4D2A5B2A8131EF2182311F
:1004A000F0007008F10055307106031D582A592AD2
:1004B0005B2A01305C2A00300800F5007508F30063
:1004C0007308F4006E2A74088600870101088131E0
:1004D000E22182310130F3007308F4070130F102A8
:1004E0000030F23B710A031D792A720A031D792A32
:1004F0007A2A632A0800F4007408F3007308F500F0
:100500008F2A00308131E2218231F30075088600A4
:100510008701730881000130F3007308F50701308B
:10052000F1020030F23B710A031D9A2A720A031D80
:100530009A2A9B2A812A08002000A1002108F000A5
:100540000130F1008531882582312000A00020088B
:10055000A20022080319AD2AAE2ABC2A0230A0004C
:100560007D0886008701200881000430A0007D0AF4
:100570008600870120088100220808000830230037
:100580009F0090309D0024309E00A0309B000130E1
:100590009C000030F0000030F1008131A621823152
:1005A0000030F0000030F1008131AC2182310030A8
:1005B000F0000030F1008131A02182312000EE01F5
:1005C000080000308B1B0130F4008B1371082300EE
:1005D0009200700891007108F3007008F20073082F
:1005E000F200F30180307206031DF72AF82AFA2A76
:1005F0001517FB2A15139517151400000000740C2D
:10060000031C8B1303188B1723001408F100130825
:10061000F0000800F300813197218331003A031D77
:10062000122B132B172BF0300032890B142B813136
:10063000FE218331003A03191E2B1F2B392BAA30C0
:100640008131CC218331F401332B74087307F2001C
:1006500072088600870101088131CC218331013085
:10066000F2007208F40774087106031D382B392B49
:10067000252B0800220090018F018C018D018E0135
:10068000083021009000FE308C00FF308D00973044
:100690008E00FF308F00073023008F0007308E0060
:1006A00078308D009001BE308C0024008F019001C5
:1006B0008D018C018E0121009517250090018C0180
:1006C0008D018E018F0126008C018D018E018F011D
:1006D000900127008C018D01FF308E00FF308F00CC
:1006E0000F30900022009D019C010800F3002400BF
:1006F000951A7B2B7C2BC42B7308F000F101F0358D
:10070000F10DF035F10D0130700784008830713D36
:100710008500000894007308F000F101F035F10D38
:10072000F035F10D0030700784008830713D850090
:100730000008950096017308F000F101F035F10D05
:10074000F035F10D0230700784008830713D85006E
:10075000000892007308F000F101F035F10DF0355A
:10076000F10D0330700784008830713D850000086A
:10077000F200F20DF20DF20D21000E087206F739AB
:1007800072068E002400951608002000E100600823
:100790008331762383310330F70077082000A000EF
:1007A00061088600013087000130423FA1006108E6
:1007B0008600013087000130433FA20022000C1068
:1007C0000330F1000030F200203082315D228331AD
:1007D0004030F1000030F200203082317B22833142
:1007E00022000C148131882183314230F7007608D1
:1007F00086008701770881001230F700760A8600AC
:100800008701770881002000E2016208203E86000F
:1008100087010108F70062087607F8007808023EB1
:1008200086008701770881000130F7007708E2072A
:1008300040306206031D1D2C1E2C052C01300800C3
:100840002000E601E701E030E4003F30E500E80188
:100850006508F1006408F0008231E12284317108FA
:100860002000E7007008E6006708FD006808043E05
:10087000203E860087017D0881006608FD0068082B
:10088000053E203E860087017D0881000130E40797
:100890000030E53D0230FD007D08E8074030680685
:1008A000031D532C542C282C3F30FD007D08A20042
:1008B000E030FD007D08A30022006403031D612CCD
:1008C000622C652C2000A5016A2CFF30FD007D08FC
:1008D0002000A50022006503031D6F2C702C732CD3
:1008E0002000A701782CFF30FD007D082000A70024
:1008F00022006A08FD007D082000B1002030F000D1
:100900000030F10085318825843108002000E001A5
:10091000E101E030E2003F30E300E4016308F10070
:100920006208F0008231E122843120006435203EEB
:10093000860087017008C03F7108C13F0130E2079F
:100940000030E33D0130F5007508E407203064060F
:10095000031DAB2CAC2C8E2C2008031DB02CB12C0D
:10096000B42C2200E401E40A20002208031DB92C63
:10097000BA2CBD2C2200E501E50AFF302000260537
:10098000F50000302705F6002408F800F7010030D4
:100990007705F900FF307805FA0075087904220020
:1009A000E60076087A04E700FF3020002A05F5000B
:1009B00000302B05F6002808F800F7010030770515
:1009C000F900FF307805FA00750879042200E80084
:1009D00076087A04E90020002C08F500750822004A
:1009E000EA0008002000A200A501A001A101220840
:1009F000033E8600013087000108F600F701220857
:100A0000023E8600013087000108F800F9017808ED
:100A1000F900F80100307805FB00FF307905FC0093
:100A200076087B04A00077087C04A1002208023E1F
:100A300086000130870080300106031D202D212D06
:100A4000462D2108F1002008F0008231E122843196
:100A500071082000A4007008A3002408F60075089F
:100A6000023E86008701760881002308F60075089B
:100A7000033E86008701760881000130F600760883
:100A8000A5070130F6007608A507772DA5012108F6
:100A9000F1002008F0008231E12284317108200049
:100AA000A4007008A3002408F60025087507F700C5
:100AB0007708023E86008701760881002308F60049
:100AC00025087507F7007708033E8600870176083A
:100AD00081000130A0070030A13D0230F600760809
:100AE000A50740302506031D762D772D472D2508B7
:100AF000023EF60075088600870176088100023004
:100B0000F600750A8600870176088100013008002A
:100B100000308B1B0130F9008B13700886007108C0
:100B2000870043310108F200F30170088600710864
:100B3000870042310108F400F5017408F500F40162
:100B400000307405F700FF307505F800720877046F
:100B5000FA0073087804FB007B08230092007A08EF
:100B6000910095179511151570088600710887007A
:100B7000423180300106031DBE2DBF2DCF2D15172C
:100B800070088600710887004431010894007008DD
:100B90008600710887004531010893001C2E15134B
:100BA00015168131C32185313430F200F230890BC2
:100BB000D72DF20BD72D2300151EDF2DE02DE22DB2
:100BC0000030332E9516FC017B08230092007A0832
:100BD00091007C08F200F30172087007F4007308BA
:100BE000713DF500740886007508870044310108DE
:100BF00094007C08F200F30172087007F400730897
:100C0000713DF500740886007508870045310108BC
:100C100093008131C32185310130FA070030FB3D5B
:100C20000230F2007208FC0740307C06031D192ECA
:100C30001A2EE42D230095128131C32185313430E1
:100C4000F200F230890B222EF20B222E2300151116
:100C5000790C031C8B1303188B17951D302E312E26
:100C6000322EE02D013008002000E50063088331BA
:100C7000762386310630F70077082000A000220096
:100C80000C100130F1000030F200203082315D2282
:100C9000863122000C143430F700F230890B4E2ECE
:100CA000F70B4E2E4230F70077082000A0006508B1
:100CB0008600013087000130423FA10065088600B0
:100CC000013087000130433FA20022000C100330A6
:100CD000F1000030F200203082315D2286312200A6
:100CE0000C143430F700F230890B742EF70B742E8D
:100CF0000630F70077082000A00022000C10013019
:100D0000F1000030F200203082315D228631220075
:100D10000C143430F700F230890B8C2EF70B8C2E2C
:100D20000230F70077082000A00065088600013037
:100D300087000130423FA10065088600013087002E
:100D40000130433FA2000330F7007708E400640855
:100D50006507F700770A8600013087000108F80070
:100D60006408203E86008701780881000130F70082
:100D70007708E40743306406031DBF2EC02EA72E5C
:100D800022000C104330F1000030F200203082319C
:100D90005D22863122000C143430F700F230890BCA
:100DA000CF2EF70BCF2E8131882186310230F7000C
:100DB000760886008701770881001430F700760AEC
:100DC00086008701770881000130080082310D22FA
:100DD00086312000ED012030F0000130F100823139
:100DE0002E228631A030F0000030F10082312E2218
:100DF000863121008C0103308D009001FF302200EC
:100E00008C00900184318624863122006508031904
:100E10000A2F0B2F122FE5018431202486318131D6
:100E20008F2186318131BA218631003A031D192F75
:100E30001A2F232F22006408031D1F2F202F232F7A
:100E400081318F2186312200E401843120248631D2
:100E5000220010146400823145228631003A0319C1
:100E6000322F332F2A2F22009014640081319321D6
:100E700086312000E90069082200A00045302002E8
:100E80000318432F442F492F2008031D482F492FB3
:100E90004B2FA101A92F2000EC01EC0A5F2F81311B
:100EA000932186312000E9006C08203E8600013045
:100EB0008700690881000130E9006908EC07220019
:100EC000200820006C06031D662F672F4F2FA92FC7
:100ED000A030E9006908F50020308431F224863121
:100EE0002000EA006A08ED00C42FA030E90069087C
:100EF000FD00203082319C2286312000EA006A0801
:100F0000ED00C42FA030E9006908F60020308331DD
:100F1000C52386312000EA006A08ED00C42FA03006
:100F2000E9006908F6002030863134268631200039
:100F3000EA006A08ED00C42F81318F218631C42F69
:100F4000A03082311D2286312000E9006908ED00C1
:100F5000C42F220021082000E900EA016A08003AB3
:100F60000319B32FA02F6908023A0319682F063A14
:100F70000319752F0B3A03199C2F1D3A0319822F61
:100F8000063A03198F2FA02F20006D03031DC92FD0
:100F9000CA2FD02F21002008031DCF2FD02FD42FF0
:100FA000A03082311D228631210020082000E90076
:100FB0006908F100A03083310A2386312000ED0159
:100FC0002030F0000130F10082312E228631A03035
:100FD000F0000030F10082312E2286312200901084
:100FE0002A2F803102282000EE012200E401E501D1
:100FF000E601E701E801E901EA0120008631E62E79
:081000000234403401340034D5
:020000040001F9
:04000E008439FF3FF3
:00000001FF
