:020000040000FA
:08000000803102288731FB2F3B
:10054600240095120800BF31FC2F0800223021003C
:1005560097000800833100238231080023001E0C17
:10056600013908002000110E890C013908007108B4
:100576002100E3007008E200080071082000EE0088
:100586007008ED00080071082000EC007008EB0010
:100596000800FA30210099009A019801220096017C
:1005A6000800553023009600AA30960095140000E6
:1005B60000000800F0002000111EE22AE32ADE2ACD
:1005C600700823009A00080040302400940002308E
:1005D60095000130920021008E112400951208002A
:1005E600F0007008240091002000911DFB2AFC2ACF
:1005F600F72A91112400110808002000911E042BEF
:10060600052B002BEF0123009D1C0A2B0B2B0D2B1A
:100616001D121D1619080800F0012000111E142BCA
:10062600152B1C2B23009E1E192B1A2B1C2BF0019D
:10063600F00A700808008231E722833184314824A9
:1006460083318231CC2283318231A92283318331B5
:10065600CC2383310800F1000230F00071088600D7
:10066600870170088100FF30F000710A860087015B
:100676007008810001300800F401F4017408F200EA
:10068600F3017208700786007308713D87008101C7
:100696000130F2007208F40742307406031D542B31
:1006A600552B412B08008231B5228331003A0319BC
:1006B6005D2B5E2B6C2B833100238331F000700899
:1006C600F10055307106031D692B6A2B6C2B013026
:1006D6006D2B00300800F5007508F3007308F40070
:1006E6007F2B74088600870101088231F32283314B
:1006F6000130F3007308F4070130F1020030F23BD9
:10070600710A031D8A2B720A031D8A2B8B2B742BED
:1007160008002000A00020088531C4258331FD0093
:100726007D082000A100210803199A2B9B2BA92BD9
:100736000230FD007C08860087017D0881000430B8
:10074600FD007C0A860087017D08810021080800DB
:10075600F4007408F3007308F500BF2B00308231F3
:10076600F3228331F3007508860087017308810040
:100776000130F3007308F5070130F1020030F23B57
:10078600710A031DCA2B720A031DCA2BCB2BB12B70
:100796000800083023009F0090309D0024309E0002
:1007A600A0309B0001309C000030F0000030F100CA
:1007B6008231C02283310030F0000030F1008231F6
:1007C600C62283310030F0000030F1008231BA22B7
:1007D60083312000EF01080000308B1B0130F4004C
:1007E6008B13710823009200700891007108F300C2
:1007F6007008F2007308F200F30180307206031DE0
:10080600052C062C082C1517092C151395171514ED
:1008160000000000740C031C8B1303188B172300B5
:100826001408F1001308F0000800F3008231B12229
:100836008431003A031D202C212C252CF030003267
:10084600890B222C83310F238431003A03192C2C77
:100856002D2C472CAA308231DD228431F401412C23
:1008660074087307F2007208860087010108823156
:10087600DD2284310130F2007208F4077408710633
:10088600031D462C472C332C0800220090018F01B3
:100896008C018D018E01083021009000FE308C0005
:1008A600FF308D0097308E00FF308F000730230019
:1008B6008F0007308E007F308D009001BE308C0097
:1008C60024008F0190018D018C018E012100951766
:1008D600250090018C018D018E018F0126008C016F
:1008E6008D018E018F01900127008C018D01FF3053
:1008F6008E00FF308F000F30900022009D019C017A
:100906000800F3002400951A892C8A2CD22C73082F
:10091600F000F101F035F10DF035F10D0130700701
:1009260084008830713D8500000894007308F0004B
:10093600F101F035F10DF035F10D0030700784004E
:100946008830713D85000008950096017308F00017
:10095600F101F035F10DF035F10D0230700784002C
:100966008830713D8500000892007308F000F1019F
:10097600F035F10DF035F10D033070078400883045
:10098600713D85000008F200F20DF20DF20D210016
:100996000E087206F73972068E00240095160800B6
:1009A6002000E10060088431842484310330F7009C
:1009B60077082000A000610886000130870001301A
:1009C600423FA10061088600013087000130433FA5
:1009D600A20022000C100330F1000030F20020309B
:1009E60083316E2384314030F1000030F200203034
:1009F6008331AB23843122000C148231A32284314B
:100A06004230F700760886008701770881001230A9
:100A1600F700760A86008701770881002000E20148
:100A26006208203E860087010108F7006208760703
:100A3600F8007808023E86008701770881000130B9
:100A4600F7007708E20740306206031D2B2D2C2D98
:100A5600132D013008002000A200A501A001A1016C
:100A66002208033E8600013087000108F600F701E0
:100A76002208023E8600013087000108F800F901CD
:100A86007808F900F80100307805FB00FF30790599
:100A9600FC0076087B04A00077087C04A1002208ED
:100AA600023E86000130870080300106031D5C2D62
:100AB6005D2D822D2108F1002008F0008331EF23FF
:100AC600853171082000A4007008A3002408F600F0
:100AD6007508023E86008701760881002308F60025
:100AE6007508033E86008701760881000130F6000E
:100AF6007608A5070130F6007608A507B32DA501EF
:100B06002108F1002008F0008331EF2385317108B8
:100B16002000A4007008A3002408F6002508750725
:100B2600F7007708023E86008701760881002308D1
:100B3600F60025087507F7007708033E860087014B
:100B4600760881000130A0070030A13D0230F60092
:100B56007608A50740302506031DB22DB32D832D3B
:100B66002508023EF6007508860087017608810092
:100B76000230F600750A860087017608810001308A
:100B86000800FB0000308B1B0130F7008B137B083D
:100B9600033E8600013087000108F000F1017B0862
:100BA600023E8600013087000108F200F301720858
:100BB600F300F20100307205F500FF307305F60010
:100BC60070087504F80071087604F90079082300A6
:100BD6009200780891009517951115157B08023E2D
:100BE60086000130870080300106031DFB2DFC2D99
:100BF6000C2E15177B088600013087000130443F14
:100C060094007B088600013087000130453F930041
:100C16004D2E151315168231D42285313430F0004D
:100C2600F230890B142EF00B142E2300151E1C2EE9
:100C36001D2E1F2E0030642E9516FA01790823000A
:100C46009200780891007A087B07F0007008860009
:100C5600013087000130443F94007A087B07F0009A
:100C660070088600013087000130453F93008231CD
:100C7600D42285310130F8070030F93D0230F0000A
:100C86007008FA0740307A06031D4A2E4B2E212E95
:100C9600230095128231D42285313430F000F230AF
:100CA600890B532EF00B532E23001511770C031CC2
:100CB6008B1303188B17951D612E622E632E1D2E26
:100CC600013008002000E500630884318424863161
:100CD6000630F70077082000A00022000C10013033
:100CE600F1000030F200203083316E23863122007D
:100CF6000C143430F700F230890B7F2EF70B7F2E61
:100D06004230F70077082000A00065088600013011
:100D160087000130423FA100650886000130870048
:100D26000130433FA20022000C100330F1000030D6
:100D3600F200203083316E23863122000C143430C9
:100D4600F700F230890BA52EF70BA52E0630F7001B
:100D560077082000A00022000C100130F1000030BE
:100D6600F200203083316E23863122000C14343099
:100D7600F700F230890BBD2EF70BBD2E0230F700BF
:100D860077082000A0006508860001308700013042
:100D9600423FA10065088600013087000130433FCD
:100DA600A2000330F7007708E40064086507F7003F
:100DB600770A8600013087000108F8006408203EA3
:100DC60086008701780881000130F7007708E4077C
:100DD60043306406031DF02EF12ED82E22000C108F
:100DE6004330F1000030F200203083316E2386312B
:100DF60022000C143430F700F230890B002FF70B69
:100E0600002F8231A32286310230F7007608860051
:100E16008701770881001430F700760A860087017B
:100E2600770881000130080083311E2387312000B6
:100E3600EA012030F0000130F10083313F23873191
:100E4600A030F0000030F10083313F2387312100CC
:100E560090018C0122009001FF308C001014640078
:100E6600833156238731003A03193A2F3B2F322F0D
:100E76002200901464008231AD2287312000E60002
:100E860066082200A0004530200203184B2F4C2F85
:100E9600512F2008031D502F512F532FA101B12F81
:100EA6002000E901E90A672F8231AD22873120004F
:100EB600E6006908203E860001308700660881004A
:100EC6000130E6006608E9072200200820006906CE
:100ED600031D6E2F6F2F572FB12FA030E600660827
:100EE600F500203085312E2587312000E700670880
:100EF600EA00CC2FA030E6006608FC0020308331E3
:100F06008C2387312000E7006708EA00CC2FA03049
:100F1600E6006608F60020308431D32487312000AD
:100F2600E7006708EA00CC2FA030E6006608F60066
:100F360020308631652687312000E7006708EA0001
:100F4600CC2F8231A6228731CC2FA03083312E239D
:100F560087312000E6006608EA00CC2F220021082F
:100F66002000E600E7016708003A0319BB2FA82F07
:100F76006608023A0319702F063A03197D2F0B3AB9
:100F86000319A42F1D3A03198A2F063A0319972F1E
:100F9600A82F20006A03031DD12FD22FD82F21009E
:100FA6002008031DD72FD82FDC2FA03083312E2306
:100FB6008731210020082000E6006608F100A030F5
:100FC6008431182487312000EA012030F0000130F6
:100FD600F10083313F238731A030F0000030F1006B
:100FE60083313F23873122009010322F803102282F
:100FF6002000EF0120008731172F023440340134DE
:021006000034B4
:020000040001F9
:04000E008439FF3FF3
:00000001FF
