:020000040000FA
:08000000803102288731FB2F3B
:1005640024009512080022302100970008008331EE
:100574000C238231080023001E0C013908002000DE
:10058400110E890C0139080071082100E30070087C
:10059400E200080071082000EE007008ED00080079
:1005A40071082000EC007008EB000800FA3021000C
:1005B40099009A0198012200960108005530230001
:1005C4009600AA3096009514000000000800F00080
:1005D4002000111EEE2AEF2AEA2A700823009A004E
:1005E400080040302400940002309500013092004D
:1005F40021008E11240095120800F00070082400D8
:1006040091002000911D072B082B032B911124002E
:10061400110808002000911E102B112B0C2BEF0148
:1006240023009D1C162B172B192B1D121D161908A0
:100634000800F0012000111E202B212B282B230061
:100644009E1E252B262B282BF001F00A700808008B
:100654008231F32283318431542483318231D8228C
:1006640083318231B52283318331D8238331080029
:10067400F1000230F00071088600870170088100E3
:10068400FF30F000710A8600870170088100013094
:100694000800F401F4017408F200F3017208700711
:1006A40086007308713D870081010130F2007208F1
:1006B400F40742307406031D602B612B4D2B080098
:1006C4008231C1228331003A0319692B6A2B782BBA
:1006D40083310C238331F0007008F100553071062A
:1006E400031D752B762B782B0130792B00300800F5
:1006F400F5007508F3007308F4008B2B740886006A
:10070400870101088231FF2283310130F30073082D
:10071400F4070130F1020030F23B710A031D962BFD
:10072400720A031D962B972B802B08002000A00033
:1007340020088531D0258331FD007D082000A100EB
:1007440021080319A62BA72BB52B0230FD007C082A
:10075400860087017D0881000430FD007C0A860044
:1007640087017D08810021080800F4007408F30063
:100774007308F500CB2B00308231FF228331F30064
:10078400750886008701730881000130F30073083F
:10079400F5070130F1020030F23B710A031DD62B3C
:1007A400720A031DD62BD72BBD2B0800083023005B
:1007B4009F0090309D0024309E00A0309B000130AB
:1007C4009C000030F0000030F1008231CC228331F3
:1007D4000030F0000030F1008231D2228331003049
:1007E400F0000030F1008231C62283312000EF0195
:1007F400080000308B1B0130F4008B1371082300B8
:100804009200700891007108F3007008F2007308F8
:10081400F200F30180307206031D112C122C142CEB
:100824001517152C15139517151400000000740CDA
:10083400031C8B1303188B1723001408F1001308EF
:10084400F0000800F3008231BD228431003A031D18
:100854002C2C2D2C312CF0300032890B2E2C833192
:100864001B238431003A0319382C392C532CAA3019
:100874008231E9228431F4014D2C74087307F200AB
:1008840072088600870101088231E922843101302F
:10089400F2007208F40774087106031D522C532CDD
:1008A4003F2C0800220090018F018C018D018E01E4
:1008B400083021009000FE308C00FF308D0097300E
:1008C4008E00FF308F00073023008F0007308E002A
:1008D4007F308D009001BE308C0024008F01900188
:1008E4008D018C018E0121009517250090018C014A
:1008F4008D018E018F0126008C018D018E018F01E7
:10090400900127008C018D01FF308E00FF308F0095
:100914000F30900022009D019C010800F300240088
:10092400951A952C962CDE2C7308F000F101F03505
:10093400F10DF035F10D0130700784008830713D00
:100944008500000894007308F000F101F035F10D02
:10095400F035F10D0030700784008830713D85005A
:100964000008950096017308F000F101F035F10DCF
:10097400F035F10D0230700784008830713D850038
:10098400000892007308F000F101F035F10DF03524
:10099400F10D0330700784008830713D8500000834
:1009A400F200F20DF20DF20D21000E087206F73975
:1009B40072068E002400951608002000E1006008ED
:1009C4008431902484310330F70077082000A0009C
:1009D40061088600013087000130423FA1006108B0
:1009E4008600013087000130433FA20022000C1032
:1009F4000330F1000030F200203083317A23843157
:100A04004030F1000030F20020308331B7238431CC
:100A140022000C148231B22284314230F70076086D
:100A240086008701770881001230F700760A860075
:100A34008701770881002000E2016208203E8600D9
:100A440087010108F70062087607F8007808023E7B
:100A540086008701770881000130F7007708E207F4
:100A640040306206031D372D382D1F2D013008003C
:100A74002000A200A501A001A1012208033E8600D6
:100A8400013087000108F600F7012208023E8600C3
:100A9400013087000108F800F9017808F900F8012D
:100AA40000307805FB00FF307905FC0076087B04F4
:100AB400A00077087C04A1002208023E86000130D1
:100AC400870080300106031D682D692D8E2D2108B5
:100AD400F1002008F0008331FB23853171082000E8
:100AE400A4007008A3002408F6007508023E8600DE
:100AF4008701760881002308F6007508033E860006
:100B04008701760881000130F6007608A5070130D8
:100B1400F6007608A507BF2DA5012108F1002008DD
:100B2400F0008331FB23853171082000A400700894
:100B3400A3002408F60025087507F7007708023E8D
:100B440086008701760881002308F60025087507CA
:100B5400F7007708033E860087017608810001309C
:100B6400A0070030A13D0230F6007608A50740300A
:100B74002506031DBE2DBF2D8F2D2508023EF60030
:100B8400750886008701760881000230F600750A30
:100B9400860087017608810001300800FB000030E0
:100BA4008B1B0130F7008B137B08033E860001305A
:100BB40087000108F000F1017B08023E8600013045
:100BC40087000108F200F3017208F300F20100301B
:100BD4007205F500FF307305F60070087504F8001F
:100BE40071087604F90079082300920078089100CE
:100BF4009517951115157B08023E86000130870074
:100C040080300106031D072E082E182E15177B08A9
:100C14008600013087000130443F94007B08860041
:100C2400013087000130453F9300592E15131516E6
:100C34008231E02285313430F000F230890B202EED
:100C4400F00B202E2300151E282E292E2B2E0030CB
:100C5400702E9516FA017908230092007808910005
:100C64007A087B07F00070088600013087000130A5
:100C7400443F94007A087B07F00070088600013036
:100C840087000130453F93008231E02285310130F5
:100C9400F8070030F93D0230F0007008FA074030E0
:100CA4007A06031D562E572E2D2E230095128231BF
:100CB400E02285313430F000F230890B5F2EF00BE6
:100CC4005F2E23001511770C031C8B1303188B174D
:100CD400951D6D2E6E2E6F2E292E013008002000DA
:100CE400E50063088431902486310630F7007708E4
:100CF4002000A00022000C100130F1000030F200AE
:100D0400203083317A23863122000C143430F700EA
:100D1400F230890B8B2EF70B8B2E4230F7007708BD
:100D24002000A00065088600013087000130423FA2
:100D3400A10065088600013087000130433FA2000E
:100D440022000C100330F1000030F2002030833117
:100D54007A23863122000C143430F700F230890BE8
:100D6400B12EF70BB12E0630F70077082000A00053
:100D740022000C100130F1000030F20020308331E9
:100D84007A23863122000C143430F700F230890BB8
:100D9400C92EF70BC92E0230F70077082000A000F7
:100DA40065088600013087000130423FA1006508D4
:100DB4008600013087000130433FA2000330F70072
:100DC4007708E40064086507F700770A86000130B5
:100DD40087000108F8006408203E8600870178082F
:100DE40081000130F7007708E40743306406031DEF
:100DF400FC2EFD2EE42E22000C104330F1000030B6
:100E0400F200203083317A23863122000C143430EE
:100E1400F700F230890B0C2FF70B0C2F8231B22222
:100E240086310230F7007608860087017708810052
:100E34001430F700760A86008701770881000130B4
:100E4400080083312A2387312030F0000130F1007B
:100E540083314B238731A030F0000030F10083311F
:100E64004B238731210090018C0122009001FF3037
:100E74008C0010146400833162238731003A031913
:100E8400442F452F3C2F2200901464008231B92254
:100E940087312000E60066082200A00045302002C9
:100EA4000318552F562F5B2F2008031D5A2F5B2F35
:100EB4005D2FA101B72F2000E901E90A712F8231CA
:100EC400B92287312000E6006908203E86000130FF
:100ED4008700660881000130E6006608E907220001
:100EE400200820006906031D782F792F612FB72F62
:100EF400A030E6006608F500203085313A258731B8
:100F04002000E7006708EA00CF2FA030E60066085B
:100F1400FC0020308331982387312000E7006708E4
:100F2400EA00CF2FA030E6006608F60020308431B6
:100F3400DF2487312000E7006708EA00CF2FA030C4
:100F4400E6006608F60020308631712687312000DD
:100F5400E7006708EA00CF2FA03083313A238731B6
:100F64002000E6006608EA00CF2F220021082000B6
:100F7400E600E7016708003A0319C12FAE2F66089F
:100F8400023A03197A2F063A0319872F163A0319DE
:100F9400942F063A0319A12FAE2F6A03031DD32FF2
:100FA400D42FDA2F21002008031DD92FDA2FDE2FAA
:100FB400A03083313A238731210020082000E60045
:100FC4006608F100A0308431242487312030F000F9
:100FD4000130F10083314B238731A030F000003021
:100FE400F10083314B238731220090103C2F803154
:100FF40002282000EF0120008731232F02344034DF
:04100400013400347F
:020000040001F9
:04000E008439FF3FF3
:00000001FF
