:020000040000FA
:08000000803102288731FB2F3B
:1009300022302100970008008431D9248431080036
:1009400023001E0C013908002000110E890C01390A
:10095000080071082100E5007008E4000800710833
:100960002000EE007008ED00080071082100E7008B
:100970007008E6000800FA30210099009A019801F9
:10098000220096010800F0002000111EC82CC92C7E
:10099000C42C700823009A00080040302400940002
:1009A000023095000130920021008E112400951232
:1009B00008002000911EDD2CDE2CD92CEF01230035
:1009C0009D1CE32CE42CE62C1D121D1619080800B2
:1009D000F0012000111EED2CEE2CF52C23009E1EA4
:1009E000F22CF32CF52CF001F00A70080800843189
:1009F000CD2484318531E22584318431BB24843196
:100A00008431982484318531642584310800F100D3
:100A10000230F00071088600870170088100FF3005
:100A2000F000710A8600870170088100013008001B
:100A3000F100F201F20172087107F00070088600FF
:100A4000870181010130F0007008F2074230720224
:100A5000031C2B2D2C2D1B2D08008431A424853143
:100A6000003A0319342D352D432D8431D924853195
:100A7000F0007008F10055307106031D402D412D26
:100A8000432D0130442D003008002000A000200834
:100A90008631B2268531FD007D082000A1002108A5
:100AA0000319532D542D622D0230FD007C08860061
:100AB00087017D0881000430FD007C0A86008701E3
:100AC0007D08810021080800083023009F00903035
:100AD0009D0024309E00A0309B0001309C0000301F
:100AE000F0000030F1008431AF2485310030F00097
:100AF0000030F1008431B52485310030F000003041
:100B0000F1008431A92485312000EF010800003074
:100B10008B1B0130F4007108F3007008F2007308B9
:100B2000F200F30180307206031D972D982D9C2D45
:100B3000230092011517A02D7108230092001513B0
:100B40007008910095178B13151400000000740CA9
:100B5000031C8B1303188B1723001408F1001308D0
:100B6000F0000800F3008431A0248531003A031D11
:100B7000BA2DBB2DBF2DF0300032890BBC2D843136
:100B8000E8248531003A0319C62DC72DE12DAA307E
:100B90008431C3248531F401DB2D74087307F2001E
:100BA00072088600870101088431C3248531013031
:100BB000F2007208F40771087402031CE02DE12DA5
:100BC000CD2D0800220090018F018C018D018E0136
:100BD000083021009000FF308C00FF308D009730EE
:100BE0008E00FF308F00073023008F0007308E000B
:100BF0007F308D0007309000BF308C0024008F01C3
:100C000090018D018C018E01210095172500900126
:100C10008C018D018E018F0126008C018D018E01CA
:100C20008F01900127008C018D01FF308E00FF3075
:100C30008F000F30900022009D019C0108002000D1
:100C4000A200A501A001A1012208033E86008701A0
:100C50000108F600F7012208023E8600870101081C
:100C6000F800F9017808F900F80100307805FB0078
:100C7000FF307905FC0076087B04A00077087C042F
:100C8000A1002208023E8600870180300106031D74
:100C90004A2E4B2E702E2108F1002008F0008531DD
:100CA0008725863171082000A4007008A30024085D
:100CB000F6007508023E8600870176088100230849
:100CC000F6007508033E8600870176088100013032
:100CD000F6007608A5070130F6007608A507A12ED4
:100CE000A5012108F1002008F00085318725863113
:100CF00071082000A4007008A3002408F60025084D
:100D00007507F7007708023E8600870176088100A4
:100D10002308F60025087507F7007708033E8600CC
:100D20008701760881000130A0070030A13D023024
:100D3000F6007608A50740302502031CA02EA12E40
:100D4000712E2508023EF600750886008701760898
:100D500081000230F600750A86008701760881005E
:100D600001300800FB0000308B1B0130F7008B13B3
:100D70007B08033E860087010108F000F1017B0833
:100D8000023E860087010108F200F3017208F300B9
:100D9000F20100307205F500FF307305F6007008AF
:100DA0007504F80071087604F900790823009200B0
:100DB000780891009517951115157B08023E86005D
:100DC000870180300106031DE62EE72EF32E15174E
:100DD0007B0886008701443F94007B0886008701DA
:100DE000453F9300382F1513151655309600AA303D
:100DF00096009514000000003430F000F230890BAA
:100E0000FF2EF00BFF2E2300151E072F082F0A2F91
:100E10000030542F9516FA017908230092007808C3
:100E200091007A087B07F000700886008701443F34
:100E300094007A087B07F000700886008701453F20
:100E4000930055309600AA309600951400000000DB
:100E50000130F8070030F93D0230F0007008FA0761
:100E600040307A02031C352F362F0C2F23009512A9
:100E700055309600AA3096009514000000003430DA
:100E8000F000F230890B422FF00B422F2300151394
:100E90001511770C031C8B1303188B17951D512FFD
:100EA000522F532F082F013008008431F724873147
:100EB000A0308531182587312830853118258731B4
:100EC00021009001220090011014640085312D252D
:100ED0008731003A03196D2F6E2F652F2200901471
:100EE000640084319C2487312000A600260821005C
:100EF000A0004530200203187E2F7F2F842F20086A
:100F0000031D832F842F862FA101C52F2000EC0104
:100F1000EC0A992F84319C2487312000A6006C08AC
:100F2000A03E86008701260881000130A600260821
:100F3000EC072100200820006C02031CA02FA12F29
:100F40008A2FC52F2830A6002608F500A03086314C
:100F50001F2687312000A7002708EB00D72F283055
:100F6000A6002608FC00A0308531452587312000E9
:100F7000A7002708EB00D72F2830853107258731B8
:100F80002000A6002608EB00D72F21002108200012
:100F9000A600A7012708003A0319CF2FBC2F260867
:100FA000023A0319A22F063A0319AF2FBC2F6B0385
:100FB000031DDB2FDC2FE12F2808031DE02FE12F7D
:100FC000E52F283085310725873120002808A60025
:100FD0002608F10028308531B2258731A0308531CF
:100FE0001825873128308531182587312200901047
:100FF000652F803102282000EF0120008731552F16
:081000000234403401340034D5
:020000040001F9
:04000E008439FF3FF3
:00000001FF
