:020000040000FA
:08000000803102288731FC2F3A
:100C1600223021009700080086316C2686310800B4
:100C260023001E0C013908007108FC007008FB0047
:100C360008002000110E890C0139080071082000F7
:100C4600E3007008E200080071082000E500700863
:100C5600E40008007830210099009A0198012200EA
:100C660096010800403024009400023095000130BF
:100C7600920021008E11240095120800F000442EE7
:100C860064002000111E482E492E432E70082300B2
:100C96009A000800F0012000111E522E532E5A2EE3
:100CA60023009E1E572E582E5A2EF001F00A700869
:100CB60008008631352686318731392786318631D7
:100CC6002D26863186310B2686318631BB26863126
:100CD60008006E2E64002000911E722E732E6D2E5B
:100CE600FD0123009D1C782E792E7B2E1D121D16CC
:100CF60019080800F1000230F0007108860087012B
:100D060070088100FF30F000710A860087017008C4
:100D1600810001300800F100F201F201720871074A
:100D2600F00070088600870181010130F00070082C
:100D3600F20742307202031CA12EA22E912E080049
:100D460086311C268631003A0319AA2EAB2EB92EFF
:100D560086316C268631F0007008F1005530710638
:100D6600031DB62EB72EB92E0130BA2E003008005C
:100D7600083023009F0090309D0024309E00A03054
:100D86009B0001309C000030F0000030F1008631FD
:100D9600172686310030F0000030F1008631272614
:100DA60086310030F0000030F10086312126863190
:100DB600FD010800F400F501F501F52E750874072C
:100DC600F1007108860087010108F20075087007B6
:100DD600F300730886008701720881000130F10074
:100DE6007108F50774088600870101087502031C5F
:100DF600FD2EFE2EE12E700A860087018101810AF2
:100E060001300800F300863113268731003A031DAE
:100E16000D2F0E2F122FF0300032890B0F2F863137
:100E26004D268731003A0319192F1A2F382FAA3069
:100E3600863141268731F4012E2F74087307F2009C
:100E46007208860087010108863141268731013004
:100E5600F2007208F40771087402031C332F342F52
:100E6600202F0A3086314126873108002200900162
:100E76008F018C018D018E010F3021009000FF3013
:100E86008C00FF308D0097308E00FF308F000730CA
:100E960023008F0007308E007F308D0007309000D2
:100EA600BF308C0024008F0190018D018C018E01D2
:100EB60021009517250090018C018D018E018F016F
:100EC60026008C018D018E018F01900127008C0177
:100ED6008D01FF308E00FF308F000F309000220012
:100EE6009D019C01080086315C268731A030863141
:100EF6008E268731203086318E268731F1012030CB
:100F060087310527873164008631A3268731003A69
:100F160003198E2F8F2F862F640086310F26873177
:100F2600F60076082100A0004330200203189C2F0B
:100F36009D2FA22F2008031DA12FA22FA42FA101B0
:100F4600D12FFA01FA0AB52F86310F268731F6001E
:100F56007A08A03E86008701760881000130F600F7
:100F66007608FA07210020087A02031CBB2FBC2F43
:100F7600A72FD12F2030F6007608F000A03086315A
:100F8600DD268731F7007708F900DE2F203086311D
:100F96007D268731F6007608F900DE2F2108F60057
:100FA600F7017708003A0319D92FC92F7608013AB5
:100FB6000319BD2FC92F7903031DE22FE32FF12F4C
:100FC600200020080319E82FE92FF12F2008F6004A
:100FD6007608F1002030873105278731A030863129
:100FE6008E268731203086318E268731862F8031B6
:100FF6000228FD0120008731762F02344034013467
:021006000034B4
:020000040001F9
:04000E00F43FFF3E7E
:00000001FF
