:0800000080310228B731C02F46
:106F80002200E801E901EA01EB01EC01ED0120003A
:106F9000BE31C52E200063082100E40020006208F5
:106FA0002100E500E230F5000030F600A030F700E7
:106FB0000030F800BB311F23B7312100E60166081D
:106FC0002000640786000030653D870021006608C8
:106FD000023EA03E84008501000881000130E607E2
:106FE0004030660203180800DF2FF0012000111E58
:106FF000FE2F23009E1EFE2F0130F00070080800B7
:10703E00240095120800B831872008001630210070
:10704E009700080023001E0C01390800023440345A
:10705E00013400342000110E890C0139080071082A
:10706E002300E1007008E000080071082200EF0024
:10707E007008EE00080071082300E3007008E200BB
:10708E00080020000D1C4D280130080000300800BB
:10709E007A30210099009A01980122009601080089
:1070AE00F0002000111E5828700823009A000800D6
:1070BE0022001010901021001710BF31E02F080091
:1070CE00553023009600AA3096009514000000005B
:1070DE000800F0007008240091002000911D742813
:1070EE009111240011080800403024009400023051
:1070FE0095000130920021008E1124009512080097
:10710E002000911E87282200ED0123009D1C91284E
:10711E001D121D161908080070088600023087001F
:10712E0002308100700A860002308700FF30810035
:10713E0001300800B8317B20B831B9319721B83110
:10714E00B8314F20B831B8312520B831B9312821A6
:10715E000800F301F301730872060319080073089F
:10716E00700786000030713D870081010130F30702
:10717E00B228553023009600AA30960095140000D0
:10718E0000003430F000F230890BCB28F00BCB2806
:10719E000800B8313120B831003A0319E028B8316F
:1071AE008720B831F00055307006031DE0280130FD
:1071BE000800003008007108F4000130F2020030BF
:1071CE00F33B720A0319730A031908007408860048
:1071DE0087010108B8317020B8310130F407E42876
:1071EE007108F4000130F2020030F33B720A031909
:1071FE00730A031908007408860087010030B8313D
:10720E007020B83181000130F407F928F401F5013E
:10721E00701C15297208F4077308F53D0130F2351C
:10722E00F30D890B16290130F136F00C890B1B2951
:10723E0070087104031D0F297508F1007408F00021
:10724E000800083023009F0090309D0024309E00DF
:10725E0022309B009C010030F0000030F100B8316C
:10726E003C20B9310030F0000030F100B83142203E
:10727E00B9310030F0000030F100B8313620220074
:10728E00ED0108000B08F4008B132300951715125F
:10729E0071089200700891007108F3007008F200F6
:1072AE007308F200F30180307206031D6029151772
:1072BE0061291513151400000000230095131513F2
:1072CE0074088B001408F1001308F0000800B831A0
:1072DE002920B931003A031D7C291030F300943077
:1072EE00890B7729F30B77290032B731F527B9319E
:1072FE00003A03190800AA30B8315720B931F40109
:10730E0074087206031908007108740786000230AB
:10731E0087000108B8315720B9310130F4078729A9
:10732E00220090018F0101308C008D018E010830FA
:10733E0021009000FE308C00FF308D0097308E00C3
:10734E00FF308F00073023008F0007308E0078301B
:10735E008D009001BE308C0024008F0190018D01B4
:10736E008C018E0121009517250090018C018D0155
:10737E008E018F0126008C018D018E018F019001EF
:10738E0027008C018D01FF308E00FF308F000F30F3
:10739E00900022009D019C010800C0302000E000FA
:1073AE003F30E100E2016108F1006008F000B93100
:1073BE004921B93120006235203E860087017008D0
:1073CE00C03F7108C13F0130E0070030E13D0130A0
:1073DE00E20720306206031DDA292008031DFA2970
:1073EE0001302200E80020002208031D012A01308E
:1073FE002200E900FF3020002605F50000302705A9
:10740E00F6002408F800F70100307705F900FF3088
:10741E007805FA00750879042200EA0076087A04E5
:10742E00EB00200028082200EC000800F3002400E6
:10743E00951A08007308F000F101F035F10DF035E2
:10744E00F10D2E30700784003830713D8038850084
:10745E00000894007308F000F101F035F10DF035DD
:10746E00F10D2D30700784003830713D8038850065
:10747E000008950096017308F000F101F035F10D4A
:10748E00F035F10D2F30700784003830713D8038A3
:10749E008500000892007308F000F101F035F10D3F
:1074AE00F035F10D3030700784003830713D803882
:1074BE0085000008F200F20DF20DF20D21000E080B
:1074CE007206F73972068E00240095160800200009
:1074DE006D08023E86000330870080300106031DD2
:1074EE00802A6D08F1000330F200BD315825BA3103
:1074FE00B12A6D08033E8600033087000108210083
:10750E00A000A10120006D08023E86000330870016
:10751E0001082100A200A3012208A300A20100304D
:10752E002205A500FF302305A60020082504A7008C
:10753E0021082604A80028082000A1002100270801
:10754E002000A0006D08043EA2000330A300BC3151
:10755E005C24BA312100A90029080319C32A20008E
:10756E006E08860002308700023081006E0A8600A7
:10757E0002308700EE30810021002908080020002B
:10758E00EA01EB01C030E4003F30E500EC01650894
:10759E00F1006408F000B9314921BA3171082000B8
:1075AE00EB007008EA006C08043E203E860087015E
:1075BE006B0881006C08053E203E860087016A0834
:1075CE0081000130E4070030E53D0230EC07403029
:1075DE006C06031DCE2A3F30A200C030A30022004D
:1075EE006808031D002BFF302000E6000030E70086
:1075FE00032B2000E601E7016608A50022006908BA
:10760E00031D0F2BFF302000E8000030E900122B85
:10761E002000E801E9016808A70022006C0820009C
:10762E00AD002030F1000030F200BD3158250800C9
:10763E002000E0010030BA311D22BB3103302000A2
:10764E00A000750886007608870042310108A10067
:10765E00750886007608870043310108A2002200D3
:10766E000C102030F1000330F2000030F300B8317E
:10767E00E220BB312030F0000030F1004030F2004B
:10768E00B831B020BB312030F1004030F200003074
:10769E00F300B831F720BB31B8311F20BB312200C7
:1076AE000C1477088600780887004230810077082E
:1076BE008600780887004131123081002000E101F8
:1076CE0061087707F9000030783DFA0079088600E6
:1076DE007A08870042316108203E84008501000847
:1076EE0081000130E10740306106031D672B013038
:1076FE0008002000E3010030BA311D22BB310630F4
:10770E002000A00022000C102030F1000130F20009
:10771E000030F300B831E220BB3122000C143430BB
:10772E00F700F230890B992BF70B992B02302000C2
:10773E00A0007508023E8600033087000108A100F4
:10774E007508033E8600033087000108A20003304F
:10775E00E4006408203E8600870164087507F70080
:10776E00770A840003308500000881000130E407A9
:10777E0043306406031DB02B22000C102030F100A4
:10778E004330F2000030F300B831E220BB3122006A
:10779E000C143430F700F230890BD32BF70BD32BAC
:1077AE00B8311F2076088600023087000230810033
:1077BE00760A860002308700EE3081000130080024
:1077CE002000E901EA01C030E7003F30E800EB019C
:1077DE006808F1006708F000B9314921BB31710822
:1077EE002000EA007008E9006B08043E233E860084
:1077FE0087016A0881006B08053E233E86008701DB
:10780E00690881000130E7070030E83D0230EB07E0
:10781E0040306B06031DEF2B3F30A500C030A60095
:10782E00AA012008023E8600033087000108AC0042
:10783E002008033E8600033087000108AE00233087
:10784E00F1000030F200BD315825BB31003A031D66
:10785E00322C0030080020002108860002308700FC
:10786E0002308100210A860002308700EE3081004E
:10787E002108F10021088600023087000108F2007D
:10788E00B9316E21BB31B8312920BB31003A031911
:10789E004A2C1A302000A200F830890B542CA20B6F
:1078AE00542C00000100013008002000EA01EB0119
:1078BE0037302102C03003192002031C6F2C3F30D9
:1078CE002102C0300319200203186F2C003008006B
:1078DE00C03020063F300319210603196D2C2108F4
:1078EE00A8002008A90020082104031DBE2CEC01CD
:1078FE006C08A400A5012408F0002508F100B93198
:10790E004921BC3171082000EB007008EA006C358B
:10791E00043E263E860087016B0881006C35053ECD
:10792E00263E860087016A0881000130EC0704308C
:10793E006C02031C7F2C0830EC006C08043E263EC3
:10794E00860087016C08220784000030233D8500E5
:10795E00000881000130EC0740306C02031CA42C9F
:10796E002630F1000030F200BD3158250800EC0140
:10797E006C08043E263E860087016C0822078400B0
:10798E000030233D8500000881000130EC074030B7
:10799E006C020318B72CBF2C2000A401A001A1017A
:1079AE007508033E8600033087000108F700F801D2
:1079BE007508023E8600033087000108F900FA01BF
:1079CE007908FA00F90100307905FC00FF307A05DC
:1079DE00FD0077087C04A00078087D04A1007508DE
:1079EE00023E86000330870080300106031D1E2DE7
:1079FE002108F1002008F000B9314921BC3171088D
:107A0E002000A3007008A2007608023E8600023015
:107A1E008700230881007608033E86000230870027
:107A2E00220881000130A4070130A407492DA401CA
:107A3E002108F1002008F000B9314921BC3171084C
:107A4E002000A3007008A20024087607F70077082C
:107A5E00023E860002308700230881002408760744
:107A6E00F7007708033E8600023087002208810067
:107A7E000130A0070030A13D0230A407403024069B
:107A8E00031D1F2D76088600023087002408023E53
:107A9E008100760A860002308700023081000130B4
:107AAE0008000B08FA008B13710886007208870015
:107ABE0043310108F300F401710886007208870053
:107ACE0042310108F500F6017508F600F5010030A7
:107ADE007505F800FF307605F90073087804FB0091
:107AEE0074087904FC007C08230092007B08910046
:107AFE009517151595117108860072088700423189
:107B0E0080300106031D9B2D151771088600720823
:107B1E0087004431010894007108860072088700BE
:107B2E00453101089300D22D15131516B831C0201A
:107B3E00BD31230015129516FD017C08230092001D
:107B4E007B0891007D087107F3000030723DF40050
:107B5E0073088600740887004431010894007D087C
:107B6E007107F3000030723DF4007308860074084C
:107B7E008700453101089300B8316720BD310130CF
:107B8E00FB070030FC3D0230FD0740307D06031D33
:107B9E00A42D23009512B831C020BD31230015113C
:107BAE00951315137A088B00951DDF2D00300800F4
:107BBE000130080022006B08E5006A08E400650841
:107BCE002000E300220064082000E2002030E400E0
:107BDE000230E500B731CA27BD314D3024002006F2
:107BEE00031D052E50302106031D052E463022069C
:107BFE00031D052E553023060319092E01302200D0
:107C0E00EC00080026082100E700E8012400250802
:107C1E002100E900EA016908EA00E9016708690440
:107C2E002200E000210068086A042200E100600AD8
:107C3E000319610A0319362E0630F0008030F10068
:107C4E00B9314921BD31220061087106031D312E63
:107C5E00600870060319362E0330EC00080024006D
:107C6E0028082100E700E801240027082100E90088
:107C7E00EA016908EA00E901670869042000ED00DD
:107C8E00210068086A042000EE002200E201E301F0
:107C9E0020006E0822006302031D592E20006D087D
:107CAE00220062020318C32E640022006308F10052
:107CBE006208F0004230F2000030F300B9310D21BD
:107CCE00BD317008403E2100EE000030713DEF00E6
:107CDE006E08220064072000E20021006F082200D7
:107CEE00653D2000E300A030E4000130E500B7312F
:107CFE00CA27BD31230021082100E700E801230037
:107D0E0020082100E900EA016908EA00E901670894
:107D1E006904EC0068086A04ED006E08220064072E
:107D2E002100E7006F082200653D2100E80067088A
:107D3E00023E2000E20000302100683D2000E300FA
:107D4E002030E4000130E500B731CA27BD312100F3
:107D5E006D082000A10021006C082000A00020303A
:107D6E00A2000130A300BC315C24BD3101302200E1
:107D7E00E2070030E33D4F2EEC010800B831A120A0
:107D8E00BE312000EF012200E6012030F00003306A
:107D9E00F1004430F200B831B020BE31A030F00016
:107DAE000230F1004230F200B831B020BE31B931AC
:107DBE00D421BE31220069080319FD2EE901BA3122
:107DCE00C622BE316400253021009700BD31E12569
:107DDE00BE31BA31C622BE3122006C08031DFA2E06
:107DEE00B8315F20BE3101302200E6006608031D67
:107DFE000D2FB8314820BE31003A031D0D2F220041
:107E0E006808031D0D2FB8315F20BE312200E80136
:107E1E00BA31C622BE312200101464002530210072
:107E2E009700B831D020BE31003A0319182F220026
:107E3E0090146400B8312220BE312600A0004530D7
:107E4E00200203182D2F2008031D2F2FA1017F2F95
:107E5E0001302200E70026002008220067060319E1
:107E6E007F2F6708203E860003308700B83122201E
:107E7E00BE31810001302200E707322F2030F5009D
:107E8E00A030F600BC31D324BE317C2F2030200030
:107E9E00ED00A030EE00BA316E22BE317C2F2030C4
:107EAE002000A000A030A100BB31E723BE317C2F03
:107EBE002030F5000330F600A030F7000230F80055
:107ECE00BB311F23BE317C2F2030F500A030F600D1
:107EDE00BB318023BE317C2FB8315F20BE31942F51
:107EEE00A030F000B8319320BE312000EF00942F67
:107EFE0026002108023A0319452F063A03194D2F81
:107F0E000B3A0319732F1D3A03195F2F063A031903
:107F1E006B2F023A0319562F772F20006F03031D84
:107F2E009C2F25002008031DA12FA030F000B83192
:107F3E009320BE31A030F10025002008F200B931A7
:107F4E006E21BE312000EF012030F0000330F10031
:107F5E004430F200B831B020BE31A030F000023013
:107F6E00F1004230F200B831B020BE312200901044
:027F7E00182FBA
:020000040001F9
:04000E00EC3FFF3F85
:00000001FF
