:020000040000FA
:0C000000803102288731F32F2211331143
:1001940024009512080016302100970008008131D0
:1001A40059218031080023001E0C01390800200069
:1001B400110E890C0139080071082100E90070084A
:1001C400E800080071082100ED007008EC00080048
:1001D40071082100EB007008EA00080022001010EA
:1001E4009010BF31FC2F08007A30210099009A0149
:1001F400980122009601080020000D1C0229032901
:1002040005290130062900300800F0002000111EE5
:100214000C290D290829700823009A000800403091
:1002240024009400023095000130920021008E11C8
:100F44002100E400E5016508003A0319AA2F972F50
:100F54006408023A03195B2F063A0319682F0B3A07
:100F64000319932F1D3A0319762F063A0319862F76
:100F7400972F21006703031DC02FC12FC72F230004
:100F84002008031DC62FC72FCB2FA0308131692124
:100F94008631230020082100E4006408F100A03019
:100FA40082315B2286312100E7012030F0000230DB
:100FB400F1004430E4006408F20081317C21863180
:100FC400A030F0000130F10042302100E400640858
:100FD400F20081317C218631220090101D2F803156
:100FE40002282100EE012400E401E501E601E70105
:100FF400E801E901EA0120008631D52E02344034AB
:04100400013400347F
:020000040001F9
:04000E00E43FFF3E8E
:00000001FF
