:020000040000FA
:08000000803102288731F32F43
:1001940024009512080016302100970008008131D0
:1001A40059218031080023001E0C01390800200069
:1001B400110E890C0139080071082100E90070084A
:1001C400E800080071082100ED007008EC00080048
:1001D40071082100EB007008EA00080022001010EA
:1001E4009010BF31FC2F08007A30210099009A0149
:1001F400980122009601080020000D1C0229032901
:1002040005290130062900300800F0002000111EE5
:100214000C290D290829700823009A000800403091
:1002240024009400023095000130920021008E11C8
:10023400240095120800F0007008240091002000AA
:10024400911D25292629212991112400110808002E
:10025400F0012000111E2F293029372923009E1E6A
:10026400342935293729F001F00A7008080055307F
:1002740023009600AA309600951400000000343044
:10028400F000F230890B4429F00B44290800813135
:10029400112181318231902281318031F6208131E6
:1002A4008031CD2081318131EB2181310800200062
:1002B400911E5D295E2959292100EE0123009D1C10
:1002C4006429652967291D121D1619080800F10003
:1002D4000230F00071088600013087007008810048
:1002E400FF30F000710A8600013087007008810039
:1002F40001300800F501F5018D297508F300F401BA
:100304007308700786007408713D8700810101300D
:10031400F3007308F50775087206031D92299329E3
:100324007F2908008031D9208131003A03199B29A3
:100334009C29AA29813159218131F0007008F100EA
:1003440055307106031DA729A829AA290130AB2914
:1003540000300800F5007508F3007308F400BD29A7
:10036400740886008701010881311D218131013023
:10037400F3007308F4070130F1020030F23B710A14
:10038400031DC829720A031DC829C929B2290800F6
:10039400F4007408F3007308F500DE29003081319D
:1003A4001D218131F30075088600870173088100DF
:1003B4000130F3007308F5070130F1020030F23B1D
:1003C400710A031DE929720A031DE929EA29D029C2
:1003D4000800083023009F0090309D0024309E00C8
:1003E400A0309B0001309C000030F0000030F10090
:1003F4008031E42081310030F0000030F1008031A0
:10040400EA2081310030F0000030F1008031DE203C
:1004140081312100EE0108002000A2002208F10031
:100424000230F2008431EB2482312000A100210843
:10043400A300230803191F2A202A302A0230A1000E
:100444002008860001308700210881000430A100C3
:10045400200A860001308700210881002308080053
:100464000B08F2007208F4008B1323009517151281
:1004740071089200700891007108F3007008F2008E
:100484007308F200F30180307206031D4A2A4B2AD6
:100494004D2A15174E2A15131514000000002300C9
:1004A4009513151374088B001408F1001308F00059
:1004B4000800F3008031D5208231003A031D632AFD
:1004C400642A6C2A1030F2009430890B672AF20BEC
:1004D400672A003281312A218231003A0319732AB2
:1004E400742A8F2AAA30813107218231F401892AA2
:1004F40074087307F200720886000130870001084F
:100504008131072182310130F2007208F407740846
:100514007106031D8E2A8F2A7A2A08002200900170
:100524008F0101308C008D018E0108302100900074
:10053400FE308C00FF308D0097308E00FF308F002E
:10054400073023008F0007308E0078308D00900133
:10055400BE308C0024008F0190018D018C018E012E
:1005640021009517250090018C018D018E018F01CA
:1005740026008C018D018E018F01900127008C01D2
:100584008D01FF308E00FF308F000F30900022006D
:100594009D019C010800F3002400951AD22AD32A55
:1005A4001B2B7308F000F101F035F10DF035F10D5E
:1005B4000130700784008830713D85000008940084
:1005C4007308F000F101F035F10DF035F10D003054
:1005D400700784008830713D8500000895009601FD
:1005E4007308F000F101F035F10DF035F10D023032
:1005F400700784008830713D8500000892007308FC
:10060400F000F101F035F10DF035F10D0330700714
:1006140084008830713D85000008F200F20DF20D6F
:10062400F20D21000E087206F73972068E002400BE
:10063400951608002000E801E901E030E6003F30AB
:10064400E700EA016708F1006608F000823132220F
:10065400833171082000E9007008E8006908A000EF
:100664006A08043E213E860087012008810068084C
:10067400A0006A08053E213E86008701200881000B
:100684000130E6070030E73D0230A0002008EA0709
:1006940040306A06031D4F2B502B242B3F30A00003
:1006A4002008A300E030A0002008A4002400640374
:1006B400031D5D2B5E2B612B2000A601662BFF30F2
:1006C4002000A0002008A60024006503031D6B2B56
:1006D4006C2B6F2B2000A801742BFF302000A0008E
:1006E4002008A80024006A082000A0002008B20006
:1006F4002130F1000030F2008431EB248331080012
:10070400E0302000E0003F30E100E2016108F10048
:100714006008F00082313222833120006235203EAD
:10072400860087017008C03F7108C13F0130E007AF
:100734000030E13D0130F5007508E2072030620623
:10074400031DA52BA62B882B2008031DAA2BAB2B3E
:10075400AE2B2400E401E40A20002208031DB32B7D
:10076400B42BB72B2400E501E50AFF302000260551
:10077400F50000302705F6002408F800F7010030E2
:100784007705F900FF307805FA007508790424002C
:10079400E60076087A04E700FF3020002A05F50019
:1007A40000302B05F6002808F800F7010030770523
:1007B400F900FF307805FA00750879042400E80090
:1007C40076087A04E90020002C08F5007508240056
:1007D400EA0008002000E00100308231CD2283319C
:1007E4000330F90079082000A00076088600770815
:1007F400870042310108F9007908A10076088600D3
:100804007708870043310108F9007908A200220023
:100814000C100330F1000030F20020308131AC21A3
:1008240083312030F0000030F1004030F9007908C5
:10083400F20081317C2183314030F1000030F2003C
:1008440020308131CA2183318031CA208331220092
:100854000C144230F90078088600013087007908CA
:1008640081001230F900780A860001308700790887
:1008740081002000E1016108203E86008701010813
:10088400F90061087807FA007A08023E8600013010
:100894008700790881000130F9007908E1074030C8
:1008A4006106031D562C572C3D2C013008002000F6
:1008B400ED01EE01240067082000EC002400660826
:1008C4002000EB00A030F0000030F1004430E200E2
:1008D4006208F20081317C2184312000E501E601C7
:1008E400DD2C20006C08E2006208E9006B08E200DD
:1008F4006208EA006730F6000030F7002030E200BA
:100904006208F8008331EC2384312200220820009D
:10091400E20062082100A200220023082000E20075
:1009240062082100A30020006B08023EE2000030B0
:100934006C3DE3006308E4006408E9006B08023ED0
:10094400E2006208EA006730F6000030F700203069
:10095400E2006208F8008331EC2384312000ED01C9
:10096400EE016D08023E203E86000130870001083A
:10097400E2006D08043EA03E860087016208810003
:100984000130ED070030EE3D40306D066E04031D6E
:10099400CC2CCD2CB32CA030F1000030F2008431EB
:1009A400EB24843180302000EB070030EC3D013033
:1009B400E5070030E63D660824006906031DE62CC1
:1009C4002000650824006806031DE92CEA2C732C1A
:1009D40008000B08F3007308FA008B1371088600F3
:1009E4007208870043310108F300F401710886009E
:1009F4007208870042310108F500F6017508F60017
:100A0400F50100307505F800FF307605F90073082C
:100A14007804FB0074087904FC007C08230092002D
:100A24007B089100951715159511710886007208B9
:100A34008700423180300106031D212D222D322DE5
:100A44001517710886007208870044310108940064
:100A54007108860072088700453101089300732DE0
:100A64001513151681313921843123001512951679
:100A7400FD017C08230092007B0891007D08F300AF
:100A8400F40173087107F5007408723DF6007508E7
:100A94008600760887004431010894007D08F3003D
:100AA400F40173087107F5007408723DF6007508C7
:100AB4008600760887004531010893008131392189
:100AC40084310130FB070030FC3D0230F300730831
:100AD400FD0740307D06031D702D712D3B2D230035
:100AE4009512813139218431230015119513151381
:100AF4007A088B00951D7F2D802D822D0030832D4B
:100B0400013008002000A200A501A001A1012208D3
:100B1400033E8600023087000108F600F701220830
:100B2400023E8600023087000108F800F9017808C7
:100B3400F900F80100307805FB00FF307905FC006E
:100B440076087B04A00077087C04A1002208023EFA
:100B540086000230870080300106031DB22DB32DBC
:100B6400DA2D2108F1002008F0008231322285318B
:100B740071082000A4007008A3002408F60075087A
:100B8400023E860001308700760881002308F600C3
:100B94007508033E86000130870076088100013025
:100BA400F6007608A5070130F6007608A5070D2E95
:100BB400A5012108F1002008F0008231322285319C
:100BC40071082000A4007008A3002408F60025087A
:100BD4007507F7007708023E860001308700760823
:100BE40081002308F60025087507F7007708033EFF
:100BF400860001308700760881000130A0070030AC
:100C0400A13D0230F6007608A50740302506031DF5
:100C14000C2E0D2EDB2D2508023EF60075088600ED
:100C240001308700760881000230F600750A8600DC
:100C34000130870076088100013008002000E500BB
:100C4400E30100308231CD2286310630F700770887
:100C54002000A00022000C100130F1000030F2004E
:100C640020308131AC21863122000C143430F7005D
:100C7400F230890B3B2EF70B3B2E4230F7007708FE
:100C84002000A00065088600023087000230423F41
:100C9400A10065088600023087000230433FA200AD
:100CA40022000C100330F1000030F20020308131BA
:100CB400AC21863122000C143430F700F230890B59
:100CC400612EF70B612E0630F70077082000A00094
:100CD40022000C100130F1000030F200203081318C
:100CE400AC21863122000C143430F700F230890B29
:100CF400792EF70B792E0230F70077082000A00038
:100D040065088600023087000230423FA100650872
:100D14008600023087000230433FA2000330F70010
:100D24007708E40064086507F700770A8600023054
:100D340087000108F8006408203E860087017808CF
:100D440081000130F7007708E40743306406031D8F
:100D5400AC2EAD2E942E22000C104330F100003046
:100D6400F20020308131AC21863122000C14343061
:100D7400F700F230890BBC2EF70BBC2E8031CA2051
:100D840086310230F7007608860001308700770844
:100D940081001430F700760A860001308700770856
:100DA4008100013008008131492186312100E701A9
:100DB4002030F0000230F1004430E4006408F20016
:100DC40081317C218631A030F0000130F1004230C5
:100DD4002100E4006408F20081317C2186318331F2
:100DE40082238631240065080319F92EFA2E052F73
:100DF4008431592486312400E50183311C23863152
:100E04008031F02086318031FE208631003A031D86
:100E14000C2F0D2F162F24006408031D122F132FDF
:100E2400162F8031F02086312400E40183311C2305
:100E34008631220010146400813194218631003AF5
:100E44000319252F262F1D2F2200901464008031B2
:100E5400D12086312100E40064082400A00045303C
:100E640020020318362F372F3C2F2008031D3B2F59
:100E74003C2F3E2FA101A02F2100E601E60A522FAC
:100E84008031D12086312100E4006608203E8600AE
:100E940002308700640881000130E4006408E6073A
:100EA4002400200821006606031D592F5A2F422FC3
:100EB400A02FA030E4006408F5002030853184259B
:100EC40086312100E5006508E700BB2FA030E4006F
:100ED40064082000A000203082310E2286312100D7
:100EE400E5006508E700BB2F2030F6000230F7006C
:100EF400A030E4006408F8008331EC23863121003B
:100F0400E5006508E700BB2FA030E4006408F600A4
:100F140020308631202686312100E5006508E7006F
:100F2400BB2F8031F0208631BB2FA0308131692165
:100F340086312100E4006408E700BB2F2400210867
:100F44002100E400E5016508003A0319AA2F972F50
:100F54006408023A03195B2F063A0319682F0B3A07
:100F64000319932F1D3A0319762F063A0319862F76
:100F7400972F21006703031DC02FC12FC72F230004
:100F84002008031DC62FC72FCB2FA0308131692124
:100F94008631230020082100E4006408F100A03019
:100FA40082315B2286312100E7012030F0000230DB
:100FB400F1004430E4006408F20081317C21863180
:100FC400A030F0000130F10042302100E400640858
:100FD400F20081317C218631220090101D2F803156
:100FE40002282100EE012400E401E501E601E70105
:100FF400E801E901EA0120008631D52E02344034AB
:04100400013400347F
:020000040001F9
:04000E00E43FFF3E8E
:00000001FF
