:020000040000FA
:08000000803102288731FD2F39
:100ED80016302100970008007A30210099009A0105
:100EE80098012200960108008731822787318731CF
:100EF8007027873187316C278731080022009001DD
:100F08008F018C018D018E01083021009000FF3087
:100F18008C00FF308D00FF308E00FF308F000730CF
:100F280023008F00FF308E007F308D000730900047
:100F3800BF308C0024008F0190018D018C018E013F
:100F480021009517250090018C018D018E018F01DC
:100F580026008C018D018E018F01900127008C01E4
:100F68008D01FF308E00FF308F000F30900022007F
:100F78009D019C0108008731782787312100900165
:100F88008C018D018E018F01FF3022009000FF300F
:100F98008F00FF308C00FF308D00FF308E00220064
:100FA80090018F018C018D018E010B30F1002630EC
:100FB800F0005E30890BDE2FF00BDE2FF10BDE2FF9
:100FC800FF3022009000FF308F00FF308C00FF3090
:100FD8008D00FF308E000B30F1002630F0005E30BF
:100FE800890BF42FF00BF42FF10BF42FD32F803152
:080FF800022820008731BF2F01
:020000040001F9
:04000E008439FF3EF4
:00000001FF
