:0800000080310228BF31B62F48
:10701800240095120800B8317F200800163021009E
:107028009700080023001E0C013908000234403480
:10703800013400342000110E890C01390800710850
:107048002300E1007008E000080071082200EF004A
:107058007008EE00080071082200ED007008EC00CE
:10706800080020000D1C3A280130080000300800F4
:107078007A30210099009A019801220096010800AF
:10708800F0002000111E4528700823009A0008000F
:1070980022001010901021001710BF31E02F0800B7
:1070A800553023009600AA30960095140000000081
:1070B8000800F0007008240091002000911D61284C
:1070C8009111240011080800F0012000111E7128F8
:1070D80023009E1E71280130F0007008080040301F
:1070E80024009400023095000130920021008E1196
:1070F8002400951208002000911E7F282200EB0131
:1071080023009D1C89281D121D16190808007008E7
:1071180086000230870002308100700A8600023043
:107128008700FF30810001300800B8317320B83182
:10713800B931BA21B831B8313C20B831B831122050
:10714800B831B93120210800F301F3017308720640
:10715800031908007308700786000030713D870026
:1071680081010130F307AA28553023009600AA3080
:1071780096009514000000003430F000F230890BBE
:10718800C328F00BC3280800B8311E20B831003AD4
:107198000319D828B8317F20B831F000553070066F
:1071A800031DD82801300800003008007108F400D9
:1071B8000130F2020030F33B720A0319730A031913
:1071C80008007408860087010108B8315D20B831CD
:1071D8000130F407DC287108F4000130F2020030B5
:1071E800F33B720A0319730A03190800740886002E
:1071F80087010030B8315D20B83181000130F407D3
:10720800F128F401F501701C0D297208F4077308C0
:10721800F53D0130F235F30D890B0E290130F136B9
:10722800F00C890B132970087104031D07297508D0
:10723800F1007408F0000800083023009F00903027
:107248009D0024309E0022309B009C010030F000FD
:107258000030F100B8312920B9310030F000003099
:10726800F100B8312F20B9310030F0000030F100C2
:10727800B83123202200EB0108000B08F4008B131F
:107288002300951715127108920070089100710873
:10729800F3007008F2007308F200F3018030720600
:1072A800031D582915175929151315140000000036
:1072B80023009513151374088B001408F1001308A4
:1072C800F0000800B8311620B931003A031D7429BE
:1072D8001030F3009430890B6F29F30B6F290032BB
:1072E800B8316820B931003A03190800AA30B8311A
:1072F8004420B931F40174087206031908007108B2
:1073080074078600023087000108B8314420B9317B
:107318000130F4077F29200063082100E4002000E1
:1073280062082100E500E230F5000030F600A030E8
:10733800F7000030F800BB314223B9312100E601E3
:1073480066082000640786000030653D870021003C
:107358006608023EA03E84008501000881000130D5
:10736800E6074030660203180800A42922009001AD
:107378008F0101308C008D018E01083021009000B2
:10738800FE308C00FF308D0097308E00FF308F006C
:10739800073023008F0007308E0078308D00900171
:1073A800BE308C0024008F0190018D018C018E016C
:1073B80021009517250090018C018D018E018F0108
:1073C80026008C018D018E018F01900127008C0110
:1073D8008D01FF308E00FF308F000F3090002200AB
:1073E8009D019C010800C0302000E0003F30E10012
:1073F800E2016108F1006008F000B9314121B931BA
:1074080020006235203E860087017008C03F710861
:10741800C13F0130E0070030E13D0130E207203094
:107428006206031DFD292008031D1D2A01302200C4
:10743800E60020002208031D242A01302200E7006C
:10744800FF3020002605F50000302705F600240847
:10745800F800F70100307705F900FF307805FA00E9
:10746800750879042200E80076087A04E90020000B
:1074780028082200EA000800F3002400951A0800F2
:107488007308F000F101F035F10DF035F10D1B3006
:10749800700784003830713D8038850000089400FA
:1074A8007308F000F101F035F10DF035F10D1A30E7
:1074B800700784003830713D8038850000089500D9
:1074C80096017308F000F101F035F10DF035F10D7A
:1074D8001C30700784003830713D80388500000802
:1074E80092007308F000F101F035F10DF035F10D5F
:1074F8001D30700784003830713D803885000008E1
:10750800F200F20DF20DF20D21000E087206F739A5
:1075180072068E0024009516080020006D08023EB1
:1075280086000330870080300106031DA32A6D08FA
:10753800F1000330F200BD317B25BA31D42A6D0841
:10754800033E86000330870001082100A000A10146
:1075580020006D08023E86000330870001082100E4
:10756800A200A3012208A300A20100302205A50061
:10757800FF302305A60020082504A70021082604BB
:10758800A80028082000A100210027082000A0004A
:107598006D08043EA2000330A300BC317F24BA3139
:1075A8002100A90029080319E62A20006E08860090
:1075B80002308700023081006E0A860002308700A0
:1075C800EE3081002100290808002000EA01EB01C3
:1075D800C030E4003F30E500EC016508F1006408C4
:1075E800F000B9314121BA3171082000EB00700870
:1075F800EA006C08043E203E860087016B08810083
:107608006C08053E203E860087016A08810001302B
:10761800E4070030E53D0230EC0740306C06031DFE
:10762800F12A3F30A200C030A30022006608031DE3
:10763800232BFF302000E6000030E700262B200037
:10764800E601E7016608A50022006708031D322B42
:10765800FF302000E8000030E900352B2000E80169
:10766800E9016808A70022006A082000AD00203060
:10767800F1000030F200BD317B2508002000E00158
:107688000030BA314022BB3103302000A000750819
:1076980086007608870042310108A1007508860037
:1076A8007608870043310108A20022000C10203020
:1076B800F1000330F2000030F300B831DA20BB31BA
:1076C8002030F0000030F1004030F200B831A8203E
:1076D800BB312030F1004030F2000030F300B83107
:1076E800EF20BB31B8310C20BB3122000C147708D5
:1076F800860078088700423081007708860078087D
:1077080087004131123081002000E10161087707CC
:10771800F9000030783DFA00790886007A08870079
:1077280042316108203E8400850100088100013053
:10773800E10740306106031D8A2B01300800200054
:10774800E3010030BA314022BB3106302000A000EE
:1077580022000C102030F1000130F2000030F3005C
:10776800B831DA20BB3122000C143430F700F23083
:10777800890BBC2BF70BBC2B02302000A00075082E
:10778800023E8600033087000108A1007508033E09
:107798008600033087000108A2000330E400640873
:1077A800203E8600870164087507F700770A840081
:1077B80003308500000881000130E4074330640687
:1077C800031DD32B22000C102030F1004330F200AF
:1077D8000030F300B831DA20BB3122000C14343009
:1077E800F700F230890BF62BF70BF62BB8310C208B
:1077F800760886000230870002308100760A86000B
:1078080002308700EE308100013008002000E901D5
:10781800EA01C030E7003F30E800EB016808F100FA
:107828006708F000B9314121BC3171082000EA0035
:107838007008E9006B08043E233E860087016A0849
:1078480081006B08053E233E860087016908810098
:107858000130E7070030E83D0230EB0740306B06A7
:10786800031D122C3F30A500C030A600AA01200835
:10787800023E8600033087000108AC002008033E62
:107888008600033087000108AE002330F100003085
:10789800F200BD317B25BC31003A031D552C003068
:1078A800080020002108860002308700023081008D
:1078B800210A860002308700EE3081002108F1009D
:1078C80021088600023087000108F200B9316621DC
:1078D800BC31B8311620BC31003A03196D2C1A306E
:1078E8002000A200F830890B772CA20B772C00001F
:1078F8000100013008002000EA01EB0138302102C4
:10790800003003192002031C922C3F302102C030A2
:10791800031920020318922C00300800C0302006FA
:107928003F30031921060319902C2108A8002008CC
:10793800A90020082104031DE12CEC016C08A40017
:10794800A5012408F0002508F100B9314121BC3116
:1079580071082000EB007008EA006C35043E263EF2
:10796800860087016B0881006C35053E263E86003F
:1079780087016A0881000130EC0704306C02031C9F
:10798800A22C0830EC006C08043E263E86008701D5
:107998006C08220784000030233D85000008810020
:1079A8000130EC0740306C02031CC72C2630F10074
:1079B8000030F200BD317B250800EC016C08043E64
:1079C800263E860087016C08220784000030233D8C
:1079D8008500000881000130EC0740306C02031874
:1079E800DA2CE22C2000A401A001A1017508033EB5
:1079F8008600033087000108F700F8017508023E89
:107A08008600033087000108F900FA017908FA00B6
:107A1800F90100307905FC00FF307A05FD00770890
:107A28007C04A00078087D04A1007508023E860049
:107A38000330870080300106031D412D2108F10025
:107A48002008F000B9314121BC3171082000A300A1
:107A58007008A2007608023E8600023087002308DC
:107A680081007608033E86000230870022088100E4
:107A78000130A4070130A4076C2DA4012108F100EE
:107A88002008F000B9314121BC3171082000A30061
:107A98007008A20024087607F7007708023E8600DF
:107AA800023087002308810024087607F70077084A
:107AB800033E860002308700220881000130A007BB
:107AC8000030A13D0230A40740302406031D422D9A
:107AD80076088600023087002408023E8100760A74
:107AE80086000230870002308100013008000B0850
:107AF800FA008B1371088600720887004331010869
:107B0800F300F40171088600720887004231010809
:107B1800F500F6017508F600F50100307505F80066
:107B2800FF307605F90073087804FB0074087904BF
:107B3800FC007C08230092007B089100951715151E
:107B4800951171088600720887004231803001065D
:107B5800031DBE2D15177108860072088700443171
:107B680001089400710886007208870045310108F1
:107B78009300F52D15131516B831B820BD31230023
:107B880015129516FD017C08230092007B089100D0
:107B98007D087107F3000030723DF4007308860019
:107BA800740887004431010894007D087107F300C8
:107BB8000030723DF4007308860074088700453170
:107BC80001089300B8315420BD310130FB07003063
:107BD800FC3D0230FD0740307D06031DC72D230004
:107BE8009512B831B820BD3123001511951315131E
:107BF8007A088B00951D022E00300800013008001D
:107C080022006908E3006808E20063082000E30036
:107C1800220062082000E2002030E4000230E50083
:107C2800B9318F21BE314D3024002006031D282E86
:107C380050302106031D282E46302206031D282E0B
:107C48005530230603192C2E01302200EA000800C3
:107C580028082100E700E801240027082100E9009E
:107C6800EA016908EA00E901670869042000ED00F3
:107C7800210068086A042000EE002200E001E1010A
:107C880020006E0822006102031D4E2E20006D08A0
:107C9800220060020318B82E640022006108F10077
:107CA8006008F0004230F2000030F300B9310521DD
:107CB800BE317008403E2100EE000030713DEF00FB
:107CC8006E08220062072000E20021006F082200EF
:107CD800633D2000E300A030E4000130E500B93145
:107CE8008F21BE31230021082100E700E80123008D
:107CF80020082100E900EA016908EA00E9016708AB
:107D08006904EC0068086A04ED006E082200620746
:107D18002100E7006F082200633D2100E8006708A2
:107D2800023E2000E20000302100683D2000E30010
:107D38002030E4000130E500B9318F21BE31210047
:107D48006D082000A10021006C082000A000203050
:107D5800A2000130A300BC317F24BE3101302200D3
:107D6800E0070030E13D442EEA010800B8319920CF
:107D7800BE312200E5012000EF012030F000033081
:107D8800F1004430F200B831A820BE31A030F00034
:107D98000230F1004230F200B831A820BE31B931CA
:107DA800F721BE31220067080319F22EE701BA3124
:107DB800E922BE316400253021009700BE31042637
:107DC800BE31BA31E922BE3122006A08031DEF2E06
:107DD800B8314C20BE3101302000EF0020006F0880
:107DE800031D032FB8313520BE31003A031D032F80
:107DF80022006608031D032FB8314C20BE31220033
:107E0800E601BA31E922BE3122001014640025309F
:107E180021009700B831C820BE31003A03190E2F4F
:107E2800220090146400B8310F20BE312600A00053
:107E3800453020020318232F2008031D252FA101F8
:107E4800752F01302200E400260020082200640675
:107E58000319752F6408203E860003308700B83167
:107E68000F20BE31810001302200E407282F203086
:107E7800F500A030F600BC31F624BE31722F203058
:107E88002000ED00A030EE00BA319122BE31722FF1
:107E980020302000A000A030A100BC310A24BE314F
:107EA800722F2030F5000330F600A030F7000230C2
:107EB800F800BB314223BE31722F2030F500A030CC
:107EC800F600BB31A323BE31722FB8314C20BE312E
:107ED8008A2FA030F000B8318B20BE312200E50097
:107EE8008A2F26002108023A03193B2F063A031964
:107EF800432F0B3A0319692F1D3A0319552F063AD8
:107F08000319612F023A03194C2F6D2F22006503C4
:107F1800031D922F25002008031D972FA030F00085
:107F2800B8318B20BE31A030F10025002008F200C6
:107F3800B9316621BE312200E5012030F00003305E
:107F4800F1004430F200B831A820BE31A030F00072
:107F58000230F1004230F200B831A820BE312200D0
:107F680090100E2F2200E601E701E801E901EA017D
:087F7800EB012000BE31BA2E1E
:020000040001F9
:04000E00EC3FFF3F85
:00000001FF
