:0400000080313C28E7
:100008007E1480310B1D3A280B110130FB0700309C
:10001800FC3D01307C02F43003197B02031C3A28B2
:10002800FB01FC01220010080139F0000130F00644
:1000380010087006FE3970069000100C0139F000A7
:100048000130F006F00D10087006FD3970069000BA
:10005800100CF000700C0139F0000130F006F00DC2
:10006800F00D10087006FB39700690007E1009002C
:1000780080313E28FB01FC017E10200081313429AB
:100088007208F9007108F8000B0D0B0D0139F70023
:100098008B137208230092007108910095171513AD
:1000A80015159511151681316C2180312300151213
:1000B8009516FA01790823009200780891007A08C9
:1000C800F4000130F435890B66287308740786003C
:1000D8008701403FF500413FF60076083F3994001C
:1000E8007A08F4000130F435890B7728730874070F
:1000F80086008701010893001F307A0603199512BC
:1001080081316C2180310130F8070030F93D013030
:10011800FA0720307A02031C5E2823001511951374
:10012800770C031C8B1303188B1708002000911EF3
:10013800080023009D1CA3281D121D16080019087D
:100148002000E10055306106031D08006430F1000D
:10015800813119218031003A031908006330F10018
:10016800813119218031003A031908000330200039
:100178006402031CCB286230F100813119218031DF
:10018800003A0319080001302000E402BA281A30A6
:100198006306031DE128AA308131752180310230C0
:1001A800813175218031EE30813175218031230014
:1001B8009E1CDB288031ED208031AA3081317521E9
:1001C80080310230813175218031FF3081317521D4
:1001D80008002000E0016008C03EF1003F3003182D
:1001E8004030F20081315A21803120006035203EB4
:1001F800860087017108C03F7208C13F0130E007DF
:1002080020306002031CEF2800302005A0003F309A
:100218002105A100C030F1003F30F2002030F3008A
:1002280080314420803101001829F201F3012000B7
:10023800911A28290130F2070030F33D720873043F
:10024800031D1B290030080023009D1C2D291D12A9
:100258001D16710886008701190881000130080001
:100268007A302100990090012200900181314721C4
:1002780081310730210095000B118B168B178031C7
:100288009A208131432923008E1321000E138E17E3
:1002980022009D019C01083023009F0090309D00A2
:1002A80024309E0022309B009C0108007208230025
:1002B8009200710891001513951715121514000076
:1002C8000000230095131408F2001308F100080039
:1002D800553023009600AA309600951400000000BF
:1002E8000800F1002000111E7629710823009A00E9
:0202F8000800FC
:020000040001F9
:04000E00EC3FFF3E86
:00000001FF
