:0400000080313C28E7
:100008007E1480310B1D3A280B110130F0070030A7
:10001800F13D01307102F43003197002031C3A28D3
:10002800F001F101220010080139F2000130F20656
:1000380010087206FE3972069000100C0139F200A1
:100048000130F206F20D10087206FD3972069000B2
:10005800100CF200720C0139F2000130F206F20DB8
:10006800F20D10087206FB39720690007E10090026
:1000780080313E28F001F1017E10200080314428B3
:10008800783021009900900122009001073021006A
:0A00980095000B118B168B175028F2
:020000040001F9
:04000E00E43FFF3E8E
:00000001FF
