:020000040000FA
:08000000803102288631332E05
:100C00008631732686310B30F1002630F0005E30DD
:100C1000890B082EF00B082EF10B082E0310220072
:100C2000101C03140318152E182E220010141A2E4F
:100C3000220010100310901C03140318202E232EE2
:100C400022009014252E220090100310101D031472
:100C500003182B2E2E2E22001015302E22001011DC
:100C6000032E8031022820008631002E22009001C0
:100C70008F018C018D018E01083021009000FF3022
:100C80008C00FF308D00FF308E00FF308F0007306A
:100C900023008F00FF308E007F308D0007309000E2
:100CA000BF308C0024008F0190018D018C018E01DA
:100CB00021009517250090018C018D018E018F0177
:100CC00026008C018D018E018F01900127008C017F
:100CD0008D01FF308E00FF308F000F30900022001A
:100CE0009D019C01080086313626863186317D269D
:100CF000863186318526863108007A3021009900B8
:100D00009A019801220096010800163021009700F0
:020D10000800D9
:020000040001F9
:04000E00E43FFF3E8E
:00000001FF
